{
  "_format": "hh-sol-artifact-1",
  "contractName": "BookEscrow",
  "sourceName": "contracts/BookEscrow.sol",
  "abi": [
    {
      "inputs": [
        {
          "internalType": "address",
          "name": "_author",
          "type": "address"
        },
        {
          "internalType": "address",
          "name": "_tokenA",
          "type": "address"
        },
        {
          "internalType": "address",
          "name": "_tokenB",
          "type": "address"
        }
      ],
      "stateMutability": "nonpayable",
      "type": "constructor"
    },
    {
      "inputs": [],
      "name": "DeadlineNotReached",
      "type": "error"
    },
    {
      "inputs": [],
      "name": "NotAuthor",
      "type": "error"
    },
    {
      "inputs": [],
      "name": "NotBuyer",
      "type": "error"
    },
    {
      "inputs": [],
      "name": "OrderExists",
      "type": "error"
    },
    {
      "inputs": [],
      "name": "OrderNotFound",
      "type": "error"
    },
    {
      "inputs": [],
      "name": "TokenNotAllowed",
      "type": "error"
    },
    {
      "inputs": [],
      "name": "TransferFailed",
      "type": "error"
    },
    {
      "inputs": [],
      "name": "WindowClosed",
      "type": "error"
    },
    {
      "inputs": [],
      "name": "WindowOpen",
      "type": "error"
    },
    {
      "inputs": [
        {
          "internalType": "enum BookEscrow.Status",
          "name": "current",
          "type": "uint8"
        },
        {
          "internalType": "enum BookEscrow.Status",
          "name": "required",
          "type": "uint8"
        }
      ],
      "name": "WrongStatus",
      "type": "error"
    },
    {
      "inputs": [],
      "name": "ZeroAmount",
      "type": "error"
    },
    {
      "anonymous": false,
      "inputs": [
        {
          "indexed": true,
          "internalType": "bytes32",
          "name": "id",
          "type": "bytes32"
        },
        {
          "indexed": true,
          "internalType": "address",
          "name": "buyer",
          "type": "address"
        },
        {
          "indexed": false,
          "internalType": "uint256",
          "name": "amount",
          "type": "uint256"
        }
      ],
      "name": "EmergencyRefund",
      "type": "event"
    },
    {
      "anonymous": false,
      "inputs": [
        {
          "indexed": true,
          "internalType": "bytes32",
          "name": "id",
          "type": "bytes32"
        },
        {
          "indexed": true,
          "internalType": "address",
          "name": "buyer",
          "type": "address"
        },
        {
          "indexed": false,
          "internalType": "address",
          "name": "token",
          "type": "address"
        },
        {
          "indexed": false,
          "internalType": "uint256",
          "name": "cost",
          "type": "uint256"
        },
        {
          "indexed": false,
          "internalType": "uint256",
          "name": "profit",
          "type": "uint256"
        },
        {
          "indexed": false,
          "internalType": "bytes32",
          "name": "buyerPubKey",
          "type": "bytes32"
        }
      ],
      "name": "OrderCreated",
      "type": "event"
    },
    {
      "anonymous": false,
      "inputs": [
        {
          "indexed": true,
          "internalType": "bytes32",
          "name": "id",
          "type": "bytes32"
        },
        {
          "indexed": false,
          "internalType": "bytes32",
          "name": "shippingHash",
          "type": "bytes32"
        },
        {
          "indexed": false,
          "internalType": "uint64",
          "name": "fulfilledAt",
          "type": "uint64"
        }
      ],
      "name": "OrderFulfilled",
      "type": "event"
    },
    {
      "anonymous": false,
      "inputs": [
        {
          "indexed": true,
          "internalType": "bytes32",
          "name": "id",
          "type": "bytes32"
        },
        {
          "indexed": true,
          "internalType": "address",
          "name": "buyer",
          "type": "address"
        },
        {
          "indexed": false,
          "internalType": "uint256",
          "name": "amount",
          "type": "uint256"
        }
      ],
      "name": "ProfitRefunded",
      "type": "event"
    },
    {
      "anonymous": false,
      "inputs": [
        {
          "indexed": true,
          "internalType": "bytes32",
          "name": "id",
          "type": "bytes32"
        },
        {
          "indexed": true,
          "internalType": "address",
          "name": "author",
          "type": "address"
        },
        {
          "indexed": false,
          "internalType": "uint256",
          "name": "amount",
          "type": "uint256"
        }
      ],
      "name": "ProfitReleased",
      "type": "event"
    },
    {
      "inputs": [],
      "name": "DISPUTE_WINDOW",
      "outputs": [
        {
          "internalType": "uint64",
          "name": "",
          "type": "uint64"
        }
      ],
      "stateMutability": "view",
      "type": "function"
    },
    {
      "inputs": [],
      "name": "FULFILLMENT_DEADLINE",
      "outputs": [
        {
          "internalType": "uint64",
          "name": "",
          "type": "uint64"
        }
      ],
      "stateMutability": "view",
      "type": "function"
    },
    {
      "inputs": [],
      "name": "author",
      "outputs": [
        {
          "internalType": "address",
          "name": "",
          "type": "address"
        }
      ],
      "stateMutability": "view",
      "type": "function"
    },
    {
      "inputs": [
        {
          "internalType": "bytes32",
          "name": "id",
          "type": "bytes32"
        }
      ],
      "name": "canClaimRefund",
      "outputs": [
        {
          "internalType": "bool",
          "name": "",
          "type": "bool"
        }
      ],
      "stateMutability": "view",
      "type": "function"
    },
    {
      "inputs": [
        {
          "internalType": "bytes32",
          "name": "id",
          "type": "bytes32"
        }
      ],
      "name": "canReleaseProfit",
      "outputs": [
        {
          "internalType": "bool",
          "name": "",
          "type": "bool"
        }
      ],
      "stateMutability": "view",
      "type": "function"
    },
    {
      "inputs": [
        {
          "internalType": "bytes32",
          "name": "id",
          "type": "bytes32"
        }
      ],
      "name": "claimProfitRefund",
      "outputs": [],
      "stateMutability": "nonpayable",
      "type": "function"
    },
    {
      "inputs": [
        {
          "internalType": "bytes32",
          "name": "id",
          "type": "bytes32"
        },
        {
          "internalType": "address",
          "name": "token",
          "type": "address"
        },
        {
          "internalType": "uint256",
          "name": "cost",
          "type": "uint256"
        },
        {
          "internalType": "uint256",
          "name": "profit",
          "type": "uint256"
        },
        {
          "internalType": "bytes32",
          "name": "buyerPubKey",
          "type": "bytes32"
        }
      ],
      "name": "createOrder",
      "outputs": [],
      "stateMutability": "nonpayable",
      "type": "function"
    },
    {
      "inputs": [
        {
          "internalType": "bytes32",
          "name": "id",
          "type": "bytes32"
        }
      ],
      "name": "disputeWindowEnd",
      "outputs": [
        {
          "internalType": "uint64",
          "name": "",
          "type": "uint64"
        }
      ],
      "stateMutability": "view",
      "type": "function"
    },
    {
      "inputs": [
        {
          "internalType": "bytes32",
          "name": "id",
          "type": "bytes32"
        }
      ],
      "name": "emergencyRefund",
      "outputs": [],
      "stateMutability": "nonpayable",
      "type": "function"
    },
    {
      "inputs": [
        {
          "internalType": "bytes32",
          "name": "",
          "type": "bytes32"
        }
      ],
      "name": "encryptedTrackings",
      "outputs": [
        {
          "internalType": "bytes",
          "name": "",
          "type": "bytes"
        }
      ],
      "stateMutability": "view",
      "type": "function"
    },
    {
      "inputs": [
        {
          "internalType": "bytes32",
          "name": "id",
          "type": "bytes32"
        },
        {
          "internalType": "bytes32",
          "name": "shippingHash",
          "type": "bytes32"
        },
        {
          "internalType": "bytes",
          "name": "encryptedTracking",
          "type": "bytes"
        }
      ],
      "name": "fulfillOrder",
      "outputs": [],
      "stateMutability": "nonpayable",
      "type": "function"
    },
    {
      "inputs": [
        {
          "internalType": "bytes32",
          "name": "id",
          "type": "bytes32"
        }
      ],
      "name": "getOrder",
      "outputs": [
        {
          "components": [
            {
              "internalType": "address",
              "name": "buyer",
              "type": "address"
            },
            {
              "internalType": "address",
              "name": "token",
              "type": "address"
            },
            {
              "internalType": "uint256",
              "name": "cost",
              "type": "uint256"
            },
            {
              "internalType": "uint256",
              "name": "profit",
              "type": "uint256"
            },
            {
              "internalType": "uint64",
              "name": "createdAt",
              "type": "uint64"
            },
            {
              "internalType": "uint64",
              "name": "fulfilledAt",
              "type": "uint64"
            },
            {
              "internalType": "bytes32",
              "name": "shippingHash",
              "type": "bytes32"
            },
            {
              "internalType": "bytes32",
              "name": "buyerPubKey",
              "type": "bytes32"
            },
            {
              "internalType": "enum BookEscrow.Status",
              "name": "status",
              "type": "uint8"
            }
          ],
          "internalType": "struct BookEscrow.Order",
          "name": "",
          "type": "tuple"
        }
      ],
      "stateMutability": "view",
      "type": "function"
    },
    {
      "inputs": [
        {
          "internalType": "address",
          "name": "token",
          "type": "address"
        }
      ],
      "name": "isAllowedToken",
      "outputs": [
        {
          "internalType": "bool",
          "name": "",
          "type": "bool"
        }
      ],
      "stateMutability": "view",
      "type": "function"
    },
    {
      "inputs": [
        {
          "internalType": "bytes32",
          "name": "",
          "type": "bytes32"
        }
      ],
      "name": "orders",
      "outputs": [
        {
          "internalType": "address",
          "name": "buyer",
          "type": "address"
        },
        {
          "internalType": "address",
          "name": "token",
          "type": "address"
        },
        {
          "internalType": "uint256",
          "name": "cost",
          "type": "uint256"
        },
        {
          "internalType": "uint256",
          "name": "profit",
          "type": "uint256"
        },
        {
          "internalType": "uint64",
          "name": "createdAt",
          "type": "uint64"
        },
        {
          "internalType": "uint64",
          "name": "fulfilledAt",
          "type": "uint64"
        },
        {
          "internalType": "bytes32",
          "name": "shippingHash",
          "type": "bytes32"
        },
        {
          "internalType": "bytes32",
          "name": "buyerPubKey",
          "type": "bytes32"
        },
        {
          "internalType": "enum BookEscrow.Status",
          "name": "status",
          "type": "uint8"
        }
      ],
      "stateMutability": "view",
      "type": "function"
    },
    {
      "inputs": [
        {
          "internalType": "bytes32",
          "name": "id",
          "type": "bytes32"
        }
      ],
      "name": "releaseProfit",
      "outputs": [],
      "stateMutability": "nonpayable",
      "type": "function"
    },
    {
      "inputs": [],
      "name": "tokenA",
      "outputs": [
        {
          "internalType": "address",
          "name": "",
          "type": "address"
        }
      ],
      "stateMutability": "view",
      "type": "function"
    },
    {
      "inputs": [],
      "name": "tokenB",
      "outputs": [
        {
          "internalType": "address",
          "name": "",
          "type": "address"
        }
      ],
      "stateMutability": "view",
      "type": "function"
    },
    {
      "inputs": [
        {
          "internalType": "bytes32",
          "name": "id",
          "type": "bytes32"
        },
        {
          "internalType": "bytes",
          "name": "tracking",
          "type": "bytes"
        }
      ],
      "name": "updateTracking",
      "outputs": [],
      "stateMutability": "nonpayable",
      "type": "function"
    }
  ],
  "bytecode": "0x60e06040523480156200001157600080fd5b5060405162001bbd38038062001bbd83398101604081905262000034916200019a565b6001600160a01b0383166200007e5760405162461bcd60e51b815260206004820152600b60248201526a2d32b9379030baba3437b960a91b60448201526064015b60405180910390fd5b6001600160a01b038216620000c45760405162461bcd60e51b815260206004820152600b60248201526a5a65726f20746f6b656e4160a81b604482015260640162000075565b6001600160a01b0381166200010a5760405162461bcd60e51b815260206004820152600b60248201526a2d32b937903a37b5b2b72160a91b604482015260640162000075565b806001600160a01b0316826001600160a01b0316036200015f5760405162461bcd60e51b815260206004820152600f60248201526e223ab83634b1b0ba32903a37b5b2b760891b604482015260640162000075565b6001600160a01b0392831660805290821660a0521660c052620001e4565b80516001600160a01b03811681146200019557600080fd5b919050565b600080600060608486031215620001b057600080fd5b620001bb846200017d565b9250620001cb602085016200017d565b9150620001db604085016200017d565b90509250925092565b60805160a05160c05161196a620002536000396000818161018401528181610cf70152610fbd01526000818161012001528181610cbc0152610f800152600081816102c0015281816106840152818161072601528181610798015281816108f001526109f2015261196a6000f3fe608060405234801561001057600080fd5b50600436106101165760003560e01c8063a6c3e6b9116100a2578063ce20372f11610071578063ce20372f1461031b578063d92e0af21461032e578063e96aeb5b14610341578063f585dc5714610354578063feacd71f1461035e57600080fd5b8063a6c3e6b9146102bb578063b8bd576c146102e2578063b9b35088146102f5578063cbe230c31461030857600080fd5b8063751947c1116100e9578063751947c1146101c857806379e6e039146101e85780637ac96a561461020b5780639c3f1e90146102205780639d15f88e146102a857600080fd5b80630fc63d101461011b5780635778472a1461015f5780635f64b55b1461017f57806373aa7066146101a6575b600080fd5b6101427f000000000000000000000000000000000000000000000000000000000000000081565b6040516001600160a01b0390911681526020015b60405180910390f35b61017261016d366004611419565b610371565b604051610156919061146a565b6101427f000000000000000000000000000000000000000000000000000000000000000081565b6101b062278d0081565b6040516001600160401b039091168152602001610156565b6101db6101d6366004611419565b61047e565b6040516101569190611505565b6101fb6101f6366004611419565b610518565b6040519015158152602001610156565b61021e610219366004611419565b61057f565b005b61029361022e366004611419565b600060208190529081526040902080546001820154600283015460038401546004850154600586015460068701546007909701546001600160a01b03968716979690951695939492936001600160401b0380841694600160401b909404169260ff1689565b60405161015699989796959493929190611553565b61021e6102b6366004611603565b61078d565b6101427f000000000000000000000000000000000000000000000000000000000000000081565b61021e6102f0366004611655565b6109e7565b61021e610303366004611419565b610acb565b6101fb6103163660046116bc565b610cb8565b6101b0610329366004611419565b610d31565b61021e61033c366004611419565b610d86565b61021e61034f3660046116d7565b610f7e565b6101b06282848081565b6101fb61036c366004611419565b6113b2565b6103be6040805161012081018252600080825260208201819052918101829052606081018290526080810182905260a0810182905260c0810182905260e081018290529061010082015290565b6000828152602081815260409182902082516101208101845281546001600160a01b03908116825260018301541692810192909252600281015492820192909252600380830154606083015260048301546001600160401b038082166080850152600160401b9091041660a0830152600583015460c0830152600683015460e0830152600783015491929161010084019160ff9091169081111561046457610464611432565b600381111561047557610475611432565b90525092915050565b600160205260009081526040902080546104979061171d565b80601f01602080910402602001604051908101604052809291908181526020018280546104c39061171d565b80156105105780601f106104e557610100808354040283529160200191610510565b820191906000526020600020905b8154815290600101906020018083116104f357829003601f168201915b505050505081565b60008181526020819052604081206001600782015460ff16600381111561054157610541611432565b1480156105785750600481015461056c906282848090600160401b90046001600160401b031661176d565b6001600160401b031642115b9392505050565b600081815260208190526040902080546001600160a01b03166105b55760405163d36d896560e01b815260040160405180910390fd5b6001600782015460ff1660038111156105d0576105d0611432565b1461060357600781015460405163e064752b60e01b81526105fa9160ff1690600190600401611794565b60405180910390fd5b6004810154610626906282848090600160401b90046001600160401b031661176d565b6001600160401b0316421161064e5760405163a4229fab60e01b815260040160405180910390fd5b60078101805460ff191660021790556003810154801561072457600182015460405163a9059cbb60e01b81526001600160a01b037f00000000000000000000000000000000000000000000000000000000000000008116600483015260248201849052600092169063a9059cbb906044016020604051808303816000875af11580156106de573d6000803e3d6000fd5b505050506040513d601f19601f8201168201806040525081019061070291906117af565b905080610722576040516312171d8360e31b815260040160405180910390fd5b505b7f00000000000000000000000000000000000000000000000000000000000000006001600160a01b0316837fc87ea94744e515a141b53eba177ae006a4d9719e01cba87b603e92edd919d4028360405161078091815260200190565b60405180910390a3505050565b336001600160a01b037f000000000000000000000000000000000000000000000000000000000000000016146107d6576040516316aac54f60e01b815260040160405180910390fd5b600084815260208190526040902080546001600160a01b031661080c5760405163d36d896560e01b815260040160405180910390fd5b6000600782015460ff16600381111561082757610827611432565b1461085157600781015460405163e064752b60e01b81526105fa9160ff1690600090600401611794565b60078101805460ff191660011790556004810180546001600160401b034216600160401b026fffffffffffffffff0000000000000000199091161790556005810184905581156108b65760008581526001602052604090206108b4838583611836565b505b600281015415610991576001810154600282015460405163a9059cbb60e01b81526000926001600160a01b03169163a9059cbb9161092c917f0000000000000000000000000000000000000000000000000000000000000000916004016001600160a01b03929092168252602082015260400190565b6020604051808303816000875af115801561094b573d6000803e3d6000fd5b505050506040513d601f19601f8201168201806040525081019061096f91906117af565b90508061098f576040516312171d8360e31b815260040160405180910390fd5b505b600481015460408051868152600160401b9092046001600160401b0316602083015286917fc90a7b74d4fa959730f53cf54046825d6cef5ffbccc0fc881c8b775c99ec1fdf910160405180910390a25050505050565b336001600160a01b037f00000000000000000000000000000000000000000000000000000000000000001614610a30576040516316aac54f60e01b815260040160405180910390fd5b600083815260208190526040902080546001600160a01b0316610a665760405163d36d896560e01b815260040160405180910390fd5b6001600782015460ff166003811115610a8157610a81611432565b14610aab57600781015460405163e064752b60e01b81526105fa9160ff1690600190600401611794565b6000848152600160205260409020610ac4838583611836565b5050505050565b600081815260208190526040902080546001600160a01b0316610b015760405163d36d896560e01b815260040160405180910390fd5b80546001600160a01b03163314610b2b5760405163239700bf60e11b815260040160405180910390fd5b6001600782015460ff166003811115610b4657610b46611432565b14610b7057600781015460405163e064752b60e01b81526105fa9160ff1690600190600401611794565b6004810154610b93906282848090600160401b90046001600160401b031661176d565b6001600160401b0316421115610bbc57604051632f23cfcd60e01b815260040160405180910390fd5b60078101805460ff191660039081179091558101548015610c78576001820154825460405163a9059cbb60e01b81526001600160a01b03918216600482015260248101849052600092919091169063a9059cbb906044016020604051808303816000875af1158015610c32573d6000803e3d6000fd5b505050506040513d601f19601f82011682018060405250810190610c5691906117af565b905080610c76576040516312171d8360e31b815260040160405180910390fd5b505b81546040518281526001600160a01b039091169084907f3a84b32841d2d6269a291738c391c36efcaa89d2869bd068ce64014dba3bd9f690602001610780565b60007f00000000000000000000000000000000000000000000000000000000000000006001600160a01b0316826001600160a01b03161480610d2b57507f00000000000000000000000000000000000000000000000000000000000000006001600160a01b0316826001600160a01b0316145b92915050565b60008181526020819052604081206004810154600160401b90046001600160401b03168203610d635750600092915050565b6004810154610578906282848090600160401b90046001600160401b031661176d565b600081815260208190526040902080546001600160a01b0316610dbc5760405163d36d896560e01b815260040160405180910390fd5b80546001600160a01b03163314610de65760405163239700bf60e11b815260040160405180910390fd5b6000600782015460ff166003811115610e0157610e01611432565b14610e2b57600781015460405163e064752b60e01b81526105fa9160ff1690600090600401611794565b6004810154610e479062278d00906001600160401b031661176d565b6001600160401b03164211610e6f57604051633376277360e11b815260040160405180910390fd5b60078101805460ff191660039081179091558101546002820154600091610e95916118f5565b90508015610f3e576001820154825460405163a9059cbb60e01b81526001600160a01b03918216600482015260248101849052600092919091169063a9059cbb906044016020604051808303816000875af1158015610ef8573d6000803e3d6000fd5b505050506040513d601f19601f82011682018060405250810190610f1c91906117af565b905080610f3c576040516312171d8360e31b815260040160405180910390fd5b505b81546040518281526001600160a01b039091169084907f93f8973f493b0e50d6d487c0901e01b044ddd821b5e779a2b2fc2cca93e2d45690602001610780565b7f00000000000000000000000000000000000000000000000000000000000000006001600160a01b0316846001600160a01b031614158015610ff257507f00000000000000000000000000000000000000000000000000000000000000006001600160a01b0316846001600160a01b031614155b156110105760405163514e24c360e11b815260040160405180910390fd5b6000858152602081905260409020546001600160a01b03161561104657604051630e59146360e41b815260040160405180910390fd5b82158015611052575081155b1561107057604051631f2a200560e01b815260040160405180910390fd5b600061107c83856118f5565b60408051610120810182523381526001600160a01b0388166020820152908101869052606081018590526001600160401b0342166080820152600060a0820181905260c0820181905260e082018590529192509061010082015260008781526020818152604091829020835181546001600160a01b039182166001600160a01b0319918216178355928501516001808401805492909316919094161790559183015160028301556060830151600380840191909155608084015160048401805460a08701516001600160401b03908116600160401b026fffffffffffffffffffffffffffffffff1990921693169290921791909117905560c0840151600584015560e084015160068401556101008401516007840180549193909260ff199092169184908111156111af576111af611432565b0217905550506040516370a0823160e01b8152306004820152600091506001600160a01b038716906370a0823190602401602060405180830381865afa1580156111fd573d6000803e3d6000fd5b505050506040513d601f19601f820116820180604052508101906112219190611908565b6040516323b872dd60e01b8152336004820152306024820152604481018490529091506000906001600160a01b038816906323b872dd906064016020604051808303816000875af115801561127a573d6000803e3d6000fd5b505050506040513d601f19601f8201168201806040525081019061129e91906117af565b9050806112be576040516312171d8360e31b815260040160405180910390fd5b6040516370a0823160e01b8152306004820152839083906001600160a01b038a16906370a0823190602401602060405180830381865afa158015611306573d6000803e3d6000fd5b505050506040513d601f19601f8201168201806040525081019061132a9190611908565b6113349190611921565b1015611353576040516312171d8360e31b815260040160405180910390fd5b604080516001600160a01b03891681526020810188905290810186905260608101859052339089907fa30b4da0e57cd7dda9e37536547519f3ac17a06fcf6250babd9c70015c2140a89060800160405180910390a35050505050505050565b60008181526020819052604081206001600782015460ff1660038111156113db576113db611432565b14801561057857506004810154611406906282848090600160401b90046001600160401b031661176d565b6001600160401b03164211159392505050565b60006020828403121561142b57600080fd5b5035919050565b634e487b7160e01b600052602160045260246000fd5b6004811061146657634e487b7160e01b600052602160045260246000fd5b9052565b81516001600160a01b0390811682526020808401519091169082015260408083015190820152606080830151908201526080808301516101208301916114ba908401826001600160401b03169052565b5060a08301516114d560a08401826001600160401b03169052565b5060c083015160c083015260e083015160e0830152610100808401516114fd82850182611448565b505092915050565b600060208083528351808285015260005b8181101561153257858101830151858201604001528201611516565b506000604082860101526040601f19601f8301168501019250505092915050565b6001600160a01b038a811682528916602082015260408101889052606081018790526001600160401b038681166080830152851660a082015260c0810184905260e0810183905261012081016115ad610100830184611448565b9a9950505050505050505050565b60008083601f8401126115cd57600080fd5b5081356001600160401b038111156115e457600080fd5b6020830191508360208285010111156115fc57600080fd5b9250929050565b6000806000806060858703121561161957600080fd5b843593506020850135925060408501356001600160401b0381111561163d57600080fd5b611649878288016115bb565b95989497509550505050565b60008060006040848603121561166a57600080fd5b8335925060208401356001600160401b0381111561168757600080fd5b611693868287016115bb565b9497909650939450505050565b80356001600160a01b03811681146116b757600080fd5b919050565b6000602082840312156116ce57600080fd5b610578826116a0565b600080600080600060a086880312156116ef57600080fd5b853594506116ff602087016116a0565b94979496505050506040830135926060810135926080909101359150565b600181811c9082168061173157607f821691505b60208210810361175157634e487b7160e01b600052602260045260246000fd5b50919050565b634e487b7160e01b600052601160045260246000fd5b6001600160401b0381811683821601908082111561178d5761178d611757565b5092915050565b604081016117a28285611448565b6105786020830184611448565b6000602082840312156117c157600080fd5b8151801515811461057857600080fd5b634e487b7160e01b600052604160045260246000fd5b601f82111561183157600081815260208120601f850160051c8101602086101561180e5750805b601f850160051c820191505b8181101561182d5782815560010161181a565b5050505b505050565b6001600160401b0383111561184d5761184d6117d1565b6118618361185b835461171d565b836117e7565b6000601f841160018114611895576000851561187d5750838201355b600019600387901b1c1916600186901b178355610ac4565b600083815260209020601f19861690835b828110156118c657868501358255602094850194600190920191016118a6565b50868210156118e35760001960f88860031b161c19848701351681555b505060018560011b0183555050505050565b80820180821115610d2b57610d2b611757565b60006020828403121561191a57600080fd5b5051919050565b81810381811115610d2b57610d2b61175756fea26469706673582212202efdf010c17bd212902dab20c43427d870707587375ff1d1d60ff32cbb314c6b64736f6c63430008140033",
  "linkReferences": {},
  "deployedLinkReferences": {}
}