{
  "_format": "hh-sol-artifact-1",
  "contractName": "BookEscrow",
  "sourceName": "contracts/BookEscrow.sol",
  "abi": [
    {
      "inputs": [
        {
          "internalType": "address",
          "name": "_author",
          "type": "address"
        },
        {
          "internalType": "address",
          "name": "_tokenA",
          "type": "address"
        },
        {
          "internalType": "address",
          "name": "_tokenB",
          "type": "address"
        }
      ],
      "stateMutability": "nonpayable",
      "type": "constructor"
    },
    {
      "inputs": [],
      "name": "DeadlineNotReached",
      "type": "error"
    },
    {
      "inputs": [],
      "name": "NotAuthor",
      "type": "error"
    },
    {
      "inputs": [],
      "name": "NotBuyer",
      "type": "error"
    },
    {
      "inputs": [],
      "name": "OrderExists",
      "type": "error"
    },
    {
      "inputs": [],
      "name": "OrderNotFound",
      "type": "error"
    },
    {
      "inputs": [],
      "name": "TokenNotAllowed",
      "type": "error"
    },
    {
      "inputs": [],
      "name": "TransferFailed",
      "type": "error"
    },
    {
      "inputs": [],
      "name": "WindowClosed",
      "type": "error"
    },
    {
      "inputs": [],
      "name": "WindowOpen",
      "type": "error"
    },
    {
      "inputs": [
        {
          "internalType": "enum BookEscrow.Status",
          "name": "current",
          "type": "uint8"
        },
        {
          "internalType": "enum BookEscrow.Status",
          "name": "required",
          "type": "uint8"
        }
      ],
      "name": "WrongStatus",
      "type": "error"
    },
    {
      "inputs": [],
      "name": "ZeroAmount",
      "type": "error"
    },
    {
      "anonymous": false,
      "inputs": [
        {
          "indexed": true,
          "internalType": "bytes32",
          "name": "id",
          "type": "bytes32"
        },
        {
          "indexed": true,
          "internalType": "address",
          "name": "buyer",
          "type": "address"
        },
        {
          "indexed": false,
          "internalType": "uint256",
          "name": "amount",
          "type": "uint256"
        }
      ],
      "name": "EmergencyRefund",
      "type": "event"
    },
    {
      "anonymous": false,
      "inputs": [
        {
          "indexed": true,
          "internalType": "bytes32",
          "name": "id",
          "type": "bytes32"
        },
        {
          "indexed": true,
          "internalType": "address",
          "name": "buyer",
          "type": "address"
        },
        {
          "indexed": false,
          "internalType": "address",
          "name": "token",
          "type": "address"
        },
        {
          "indexed": false,
          "internalType": "uint256",
          "name": "cost",
          "type": "uint256"
        },
        {
          "indexed": false,
          "internalType": "uint256",
          "name": "profit",
          "type": "uint256"
        },
        {
          "indexed": false,
          "internalType": "bytes32",
          "name": "buyerPubKey",
          "type": "bytes32"
        }
      ],
      "name": "OrderCreated",
      "type": "event"
    },
    {
      "anonymous": false,
      "inputs": [
        {
          "indexed": true,
          "internalType": "bytes32",
          "name": "id",
          "type": "bytes32"
        },
        {
          "indexed": false,
          "internalType": "bytes32",
          "name": "shippingHash",
          "type": "bytes32"
        },
        {
          "indexed": false,
          "internalType": "uint64",
          "name": "fulfilledAt",
          "type": "uint64"
        }
      ],
      "name": "OrderFulfilled",
      "type": "event"
    },
    {
      "anonymous": false,
      "inputs": [
        {
          "indexed": true,
          "internalType": "bytes32",
          "name": "id",
          "type": "bytes32"
        },
        {
          "indexed": true,
          "internalType": "address",
          "name": "buyer",
          "type": "address"
        },
        {
          "indexed": false,
          "internalType": "uint256",
          "name": "amount",
          "type": "uint256"
        }
      ],
      "name": "ProfitRefunded",
      "type": "event"
    },
    {
      "anonymous": false,
      "inputs": [
        {
          "indexed": true,
          "internalType": "bytes32",
          "name": "id",
          "type": "bytes32"
        },
        {
          "indexed": true,
          "internalType": "address",
          "name": "author",
          "type": "address"
        },
        {
          "indexed": false,
          "internalType": "uint256",
          "name": "amount",
          "type": "uint256"
        }
      ],
      "name": "ProfitReleased",
      "type": "event"
    },
    {
      "inputs": [],
      "name": "DISPUTE_WINDOW",
      "outputs": [
        {
          "internalType": "uint64",
          "name": "",
          "type": "uint64"
        }
      ],
      "stateMutability": "view",
      "type": "function"
    },
    {
      "inputs": [],
      "name": "FULFILLMENT_DEADLINE",
      "outputs": [
        {
          "internalType": "uint64",
          "name": "",
          "type": "uint64"
        }
      ],
      "stateMutability": "view",
      "type": "function"
    },
    {
      "inputs": [],
      "name": "author",
      "outputs": [
        {
          "internalType": "address",
          "name": "",
          "type": "address"
        }
      ],
      "stateMutability": "view",
      "type": "function"
    },
    {
      "inputs": [
        {
          "internalType": "bytes32",
          "name": "id",
          "type": "bytes32"
        }
      ],
      "name": "canClaimRefund",
      "outputs": [
        {
          "internalType": "bool",
          "name": "",
          "type": "bool"
        }
      ],
      "stateMutability": "view",
      "type": "function"
    },
    {
      "inputs": [
        {
          "internalType": "bytes32",
          "name": "id",
          "type": "bytes32"
        }
      ],
      "name": "canReleaseProfit",
      "outputs": [
        {
          "internalType": "bool",
          "name": "",
          "type": "bool"
        }
      ],
      "stateMutability": "view",
      "type": "function"
    },
    {
      "inputs": [
        {
          "internalType": "bytes32",
          "name": "id",
          "type": "bytes32"
        }
      ],
      "name": "claimProfitRefund",
      "outputs": [],
      "stateMutability": "nonpayable",
      "type": "function"
    },
    {
      "inputs": [
        {
          "internalType": "bytes32",
          "name": "id",
          "type": "bytes32"
        },
        {
          "internalType": "address",
          "name": "token",
          "type": "address"
        },
        {
          "internalType": "uint256",
          "name": "cost",
          "type": "uint256"
        },
        {
          "internalType": "uint256",
          "name": "profit",
          "type": "uint256"
        },
        {
          "internalType": "bytes32",
          "name": "buyerPubKey",
          "type": "bytes32"
        }
      ],
      "name": "createOrder",
      "outputs": [],
      "stateMutability": "nonpayable",
      "type": "function"
    },
    {
      "inputs": [
        {
          "internalType": "bytes32",
          "name": "id",
          "type": "bytes32"
        }
      ],
      "name": "disputeWindowEnd",
      "outputs": [
        {
          "internalType": "uint64",
          "name": "",
          "type": "uint64"
        }
      ],
      "stateMutability": "view",
      "type": "function"
    },
    {
      "inputs": [
        {
          "internalType": "bytes32",
          "name": "id",
          "type": "bytes32"
        }
      ],
      "name": "emergencyRefund",
      "outputs": [],
      "stateMutability": "nonpayable",
      "type": "function"
    },
    {
      "inputs": [
        {
          "internalType": "bytes32",
          "name": "",
          "type": "bytes32"
        }
      ],
      "name": "encryptedTrackings",
      "outputs": [
        {
          "internalType": "bytes",
          "name": "",
          "type": "bytes"
        }
      ],
      "stateMutability": "view",
      "type": "function"
    },
    {
      "inputs": [
        {
          "internalType": "bytes32",
          "name": "id",
          "type": "bytes32"
        },
        {
          "internalType": "bytes32",
          "name": "shippingHash",
          "type": "bytes32"
        },
        {
          "internalType": "bytes",
          "name": "encryptedTracking",
          "type": "bytes"
        }
      ],
      "name": "fulfillOrder",
      "outputs": [],
      "stateMutability": "nonpayable",
      "type": "function"
    },
    {
      "inputs": [
        {
          "internalType": "bytes32",
          "name": "id",
          "type": "bytes32"
        }
      ],
      "name": "getOrder",
      "outputs": [
        {
          "components": [
            {
              "internalType": "address",
              "name": "buyer",
              "type": "address"
            },
            {
              "internalType": "address",
              "name": "token",
              "type": "address"
            },
            {
              "internalType": "uint256",
              "name": "cost",
              "type": "uint256"
            },
            {
              "internalType": "uint256",
              "name": "profit",
              "type": "uint256"
            },
            {
              "internalType": "uint64",
              "name": "createdAt",
              "type": "uint64"
            },
            {
              "internalType": "uint64",
              "name": "fulfilledAt",
              "type": "uint64"
            },
            {
              "internalType": "bytes32",
              "name": "shippingHash",
              "type": "bytes32"
            },
            {
              "internalType": "bytes32",
              "name": "buyerPubKey",
              "type": "bytes32"
            },
            {
              "internalType": "enum BookEscrow.Status",
              "name": "status",
              "type": "uint8"
            }
          ],
          "internalType": "struct BookEscrow.Order",
          "name": "",
          "type": "tuple"
        }
      ],
      "stateMutability": "view",
      "type": "function"
    },
    {
      "inputs": [
        {
          "internalType": "address",
          "name": "token",
          "type": "address"
        }
      ],
      "name": "isAllowedToken",
      "outputs": [
        {
          "internalType": "bool",
          "name": "",
          "type": "bool"
        }
      ],
      "stateMutability": "view",
      "type": "function"
    },
    {
      "inputs": [
        {
          "internalType": "bytes32",
          "name": "",
          "type": "bytes32"
        }
      ],
      "name": "orders",
      "outputs": [
        {
          "internalType": "address",
          "name": "buyer",
          "type": "address"
        },
        {
          "internalType": "address",
          "name": "token",
          "type": "address"
        },
        {
          "internalType": "uint256",
          "name": "cost",
          "type": "uint256"
        },
        {
          "internalType": "uint256",
          "name": "profit",
          "type": "uint256"
        },
        {
          "internalType": "uint64",
          "name": "createdAt",
          "type": "uint64"
        },
        {
          "internalType": "uint64",
          "name": "fulfilledAt",
          "type": "uint64"
        },
        {
          "internalType": "bytes32",
          "name": "shippingHash",
          "type": "bytes32"
        },
        {
          "internalType": "bytes32",
          "name": "buyerPubKey",
          "type": "bytes32"
        },
        {
          "internalType": "enum BookEscrow.Status",
          "name": "status",
          "type": "uint8"
        }
      ],
      "stateMutability": "view",
      "type": "function"
    },
    {
      "inputs": [
        {
          "internalType": "bytes32",
          "name": "id",
          "type": "bytes32"
        }
      ],
      "name": "releaseProfit",
      "outputs": [],
      "stateMutability": "nonpayable",
      "type": "function"
    },
    {
      "inputs": [],
      "name": "tokenA",
      "outputs": [
        {
          "internalType": "address",
          "name": "",
          "type": "address"
        }
      ],
      "stateMutability": "view",
      "type": "function"
    },
    {
      "inputs": [],
      "name": "tokenB",
      "outputs": [
        {
          "internalType": "address",
          "name": "",
          "type": "address"
        }
      ],
      "stateMutability": "view",
      "type": "function"
    },
    {
      "inputs": [
        {
          "internalType": "bytes32",
          "name": "id",
          "type": "bytes32"
        },
        {
          "internalType": "bytes",
          "name": "tracking",
          "type": "bytes"
        }
      ],
      "name": "updateTracking",
      "outputs": [],
      "stateMutability": "nonpayable",
      "type": "function"
    }
  ],
  "bytecode": "0x60e034620001d757601f620017cc38819003918201601f191683019291906001600160401b03841183851017620001dc578160609284926040968752833981010312620001d7576200005181620001f2565b906200006d836200006560208401620001f2565b9201620001f2565b916001600160a01b0380821615620001a557808316908115620001735784169081156200014157146200010b5760805260a05260c052516115c490816200020882396080518181816109cb01528181610b9c01528181610c0301528181610d1e01528181611013015261104a015260a0518181816101c0015281816107ba015261143a015260c051818181610595015281816107f201526112880152f35b835162461bcd60e51b815260206004820152600f60248201526e223ab83634b1b0ba32903a37b5b2b760891b6044820152606490fd5b855162461bcd60e51b815260206004820152600b60248201526a2d32b937903a37b5b2b72160a91b6044820152606490fd5b855162461bcd60e51b815260206004820152600b60248201526a5a65726f20746f6b656e4160a81b6044820152606490fd5b845162461bcd60e51b815260206004820152600b60248201526a2d32b9379030baba3437b960a91b6044820152606490fd5b600080fd5b634e487b7160e01b600052604160045260246000fd5b51906001600160a01b0382168203620001d75756fe608080604052600436101561001357600080fd5b60003560e01c9081630fc63d1014611427575080635778472a146112b75780635f64b55b1461127257806373aa706614611254578063751947c11461114857806379e6e039146110d95780637ac96a5614610f605780639c3f1e9014610ebb5780639d15f88e14610bcb578063a6c3e6b914610b86578063b8bd576c1461098b578063b9b350881461081c578063cbe230c31461078d578063ce20372f1461075e578063d92e0af2146105be578063e96aeb5b1461018f578063f585dc57146101715763feacd71f146100e557600080fd5b3461016c57602036600319011261016c576004356000526000602052604060002060ff600782015416906004821015610156576001602092149081610130575b506040519015158152f35b600401546001600160401b03915061014c9060401c821661153f565b1642111538610125565b634e487b7160e01b600052602160045260246000fd5b600080fd5b3461016c57600036600319011261016c576020604051628284808152f35b3461016c5760a036600319011261016c576024356001600160a01b038116810361016c576001600160a01b038181167f0000000000000000000000000000000000000000000000000000000000000000909116141580610587575b610575576004356000908152602081905260409020546001600160a01b0316610563576044351580610559575b6105475761022960643560443561151a565b604051610235816114b0565b33815260018060a01b0383166020820152604435604082015260643560608201526001600160401b0342166080820152600060a0820152600060c082015260843560e0820152600061010082015260043560005260006020526101006007604060002060018060a01b038451166bffffffffffffffffffffffff60a01b9081835416178255600182019060018060a01b03602087015116908254161790556040840151600282015560608401516003820155610340600482016001600160401b036080870151166001600160401b03198254161781556001600160401b0360a08701511667ffffffffffffffff60401b82549160401b169067ffffffffffffffff60401b1916179055565b60c0840151600582015560e0840151600682015501910151600481101561015657815460ff191660ff919091161790556040516370a0823160e01b808252306004830152906020816024816001600160a01b0388165afa9081156104da57600091610515575b506040516323b872dd60e01b81523360048201523060248201526044810184905260208160648160006001600160a01b038a165af19081156104da576000916104e6575b501561047e576040519182523060048301526020826024816001600160a01b0388165afa9182156104da576000926104a6575b508103908111610490571061047e576040519060018060a01b0316815260443560208201526064356040820152608435606082015233907fa30b4da0e57cd7dda9e37536547519f3ac17a06fcf6250babd9c70015c2140a8608060043592a3005b6040516312171d8360e31b8152600490fd5b634e487b7160e01b600052601160045260246000fd5b9091506020813d6020116104d2575b816104c2602093836114cc565b8101031261016c5751908461041d565b3d91506104b5565b6040513d6000823e3d90fd5b610508915060203d60201161050e575b61050081836114cc565b810190611527565b856103ea565b503d6104f6565b90506020813d60201161053f575b81610530602093836114cc565b8101031261016c5751846103a6565b3d9150610523565b604051631f2a200560e01b8152600490fd5b5060643515610217565b604051630e59146360e41b8152600490fd5b60405163514e24c360e11b8152600490fd5b506001600160a01b038181167f000000000000000000000000000000000000000000000000000000000000000090911614156101ea565b3461016c5760208060031936011261016c5760043560008181528083526040902080546001600160a01b039081169390841561074c5784330361073a5760078301805460ff81166004811015610156578061071357506001600160401b0362278d00816004880154160181811161049057164211156107015760039060ff1916179055610654600284015460038501549061151a565b80958161068c575b50507f93f8973f493b0e50d6d487c0901e01b044ddd821b5e779a2b2fc2cca93e2d45692541693604051908152a3005b600185015460405163a9059cbb60e01b81526001600160a01b0392909216600483015260248201929092529083908290604490829060009087165af19081156104da576000916106e4575b501561047e57848661065c565b6106fb9150833d851161050e5761050081836114cc565b866106d7565b604051633376277360e11b8152600490fd5b60405163e064752b60e01b8152604491610731906004830190611469565b60006024820152fd5b60405163239700bf60e11b8152600490fd5b60405163d36d896560e01b8152600490fd5b3461016c57602036600319011261016c57602061077c600435611559565b6001600160401b0360405191168152f35b3461016c57602036600319011261016c576004356001600160a01b038181169182900361016c57602091817f00000000000000000000000000000000000000000000000000000000000000001681149182156107f0575b50506040519015158152f35b7f00000000000000000000000000000000000000000000000000000000000000001614905082806107e4565b3461016c5760208060031936011261016c5760043560008181528083526040902080546001600160a01b039081169390841561074c5784330361073a5760078301805460ff81166004811015610156576001810361096457506001600160401b0361088f81600488015460401c1661153f565b1642116109525760039060ff191617905560038301548095816108dd575b50507f3a84b32841d2d6269a291738c391c36efcaa89d2869bd068ce64014dba3bd9f692541693604051908152a3005b600185015460405163a9059cbb60e01b81526001600160a01b0392909216600483015260248201929092529083908290604490829060009087165af19081156104da57600091610935575b501561047e5784866108ad565b61094c9150833d851161050e5761050081836114cc565b86610928565b604051632f23cfcd60e01b8152600490fd5b60405163e064752b60e01b8152604491610982906004830190611469565b60016024820152fd5b3461016c57604036600319011261016c576001600160401b0360043560243582811161016c576109bf9036906004016114ed565b906001600160a01b03907f000000000000000000000000000000000000000000000000000000000000000082163303610b745783600052602091600083526040600020908154161561074c576007015460ff1693600485101561015657600194858103610b4d57506000528382526040600020948311610b3757610a438554611476565b601f8111610aee575b50600091601f8411600114610a8b5750928293918392600094610a80575b50501b916000199060031b1c1916179055600080f35b013592508580610a6a565b9183601f1981168760005284600020946000905b88838310610ad45750505010610aba575b505050811b019055005b0135600019600384901b60f8161c19169055838080610ab0565b868601358855909601959384019387935090810190610a9f565b8560005282600020601f850160051c810191848610610b2d575b601f0160051c019085905b828110610b21575050610a4c565b60008155018590610b13565b9091508190610b08565b634e487b7160e01b600052604160045260246000fd5b60405163e064752b60e01b81526044918790610b6d906004840190611469565b6024820152fd5b6040516316aac54f60e01b8152600490fd5b3461016c57600036600319011261016c576040517f00000000000000000000000000000000000000000000000000000000000000006001600160a01b03168152602090f35b3461016c57606036600319011261016c576024356044356001600160401b03811161016c57610bfe9036906004016114ed565b9091907f00000000000000000000000000000000000000000000000000000000000000006001600160a01b03163303610b7457600435600052600060205260406000209060018060a01b038254161561074c5760078201805460ff811660048110156101565780610713575060ff191660011790556004820180546fffffffffffffffff000000000000000019164260401b67ffffffffffffffff60401b1617905582600583015580610d97575b50909150600281015480610d02575b5060046001600160401b0391015460401c1660405191825260208201527fc90a7b74d4fa959730f53cf54046825d6cef5ffbccc0fc881c8b775c99ec1fdf604060043592a2005b600182015460405163a9059cbb60e01b81526001600160a01b037f00000000000000000000000000000000000000000000000000000000000000008116600483015260248201939093529160209183916044918391600091165af19081156104da57600091610d78575b501561047e5782610cbb565b610d91915060203d60201161050e5761050081836114cc565b83610d6c565b60043560005260016020526040600020906001600160401b038111610b3757610dc08254611476565b601f8111610e73575b506000601f8211600114610e0c578192939495600092610e01575b50508160011b916000199060031b1c19161790555b819083610cac565b013590508580610de4565b601f198216958360005260206000209160005b888110610e5b57508360019596979810610e41575b505050811b019055610df9565b0135600019600384901b60f8161c19169055858080610e34565b90926020600181928686013581550194019101610e1f565b826000526020600020601f830160051c81019160208410610eb1575b601f0160051c01905b818110610ea55750610dc9565b60008155600101610e98565b9091508190610e8f565b3461016c57602036600319011261016c5760043560005260006020526101206040600020610f5e60018060a01b03918281541692600182015416906002810154600382015460048301549060058401549260ff6007600687015496015416956040519889526020890152604088015260608701526001600160401b0390818116608088015260401c1660a086015260c085015260e0840152610100830190611469565bf35b3461016c5760208060031936011261016c57600435600081815280835260409020805490926001600160a01b039182161561074c5760078401805460ff81166004811015610156576001810361096457506001600160401b03610fcb81600489015460401c1661153f565b164211156110c75760ff1916600217905560038401549384611037575b507fc87ea94744e515a141b53eba177ae006a4d9719e01cba87b603e92edd919d402916040519485527f00000000000000000000000000000000000000000000000000000000000000001693a3005b6001015460405163a9059cbb60e01b81527f00000000000000000000000000000000000000000000000000000000000000006001600160a01b03166004820152602481018690529082908290604490829060009088165af19081156104da576000916110aa575b501561047e5784610fe8565b6110c19150823d841161050e5761050081836114cc565b8561109e565b60405163a4229fab60e01b8152600490fd5b3461016c57602036600319011261016c576004356000526000602052604060002060ff60078201541690600482101561015657600160209214908161112357506040519015158152f35b600401546001600160401b03915061113f9060401c821661153f565b16421182610125565b3461016c5760208060031936011261016c576004356000526001808252604060002090604051918360009282549261117f84611476565b938487528683821691826000146112315750506001146111fa575b50505050816111aa9103826114cc565b604051828193825282519081818401526000935b8285106111e1575050604092506000838284010152601f80199101168101030190f35b84810182015186860160400152938101938593506111be565b600090815282812092945092915b82841061121e575050508201018183858061119a565b8054868501860152928401928101611208565b60ff19168582015294151560051b8501909301945086925087915081905061119a565b3461016c57600036600319011261016c57602060405162278d008152f35b3461016c57600036600319011261016c576040517f00000000000000000000000000000000000000000000000000000000000000006001600160a01b03168152602090f35b3461016c57602036600319011261016c5760006101006040516112d9816114b0565b8281528260208201528260408201528260608201528260808201528260a08201528260c08201528260e082015201526004356000526000602052604060002060ff600760405192611329846114b0565b60018060a01b03815416845260018060a01b03600182015416602085015260028101546040850152600381015460608501526001600160401b036004820154818116608087015260401c1660a0850152600581015460c0850152600681015460e08501520154169060048210156101565761012091610100820152610f5e6101006040519260018060a01b03815116845260018060a01b03602082015116602085015260408101516040850152606081015160608501526001600160401b0360808201511660808501526001600160401b0360a08201511660a085015260c081015160c085015260e081015160e08501520151610100830190611469565b3461016c57600036600319011261016c577f00000000000000000000000000000000000000000000000000000000000000006001600160a01b03168152602090f35b9060048210156101565752565b90600182811c921680156114a6575b602083101461149057565b634e487b7160e01b600052602260045260246000fd5b91607f1691611485565b61012081019081106001600160401b03821117610b3757604052565b90601f801991011681019081106001600160401b03821117610b3757604052565b9181601f8401121561016c578235916001600160401b03831161016c576020838186019501011161016c57565b9190820180921161049057565b9081602091031261016c5751801515810361016c5790565b90628284806001600160401b038093160191821161049057565b60005260006020526001600160401b0360046040600020015460401c168015611588576115859061153f565b90565b5060009056fea2646970667358221220b830d8f0d7e8b2b8e2ed49ff4971ee3c38d57132dec20c705fea31955e7b7b6664736f6c63430008140033",
  "linkReferences": {},
  "deployedLinkReferences": {}
}