{
  "_format": "hh-sol-artifact-1",
  "contractName": "BookEscrow",
  "sourceName": "contracts/BookEscrow.sol",
  "abi": [
    {
      "inputs": [
        {
          "internalType": "address",
          "name": "_author",
          "type": "address"
        }
      ],
      "stateMutability": "nonpayable",
      "type": "constructor"
    },
    {
      "inputs": [],
      "name": "DeadlineNotReached",
      "type": "error"
    },
    {
      "inputs": [],
      "name": "NotAuthor",
      "type": "error"
    },
    {
      "inputs": [],
      "name": "NotBuyer",
      "type": "error"
    },
    {
      "inputs": [],
      "name": "OrderExists",
      "type": "error"
    },
    {
      "inputs": [],
      "name": "OrderNotFound",
      "type": "error"
    },
    {
      "inputs": [],
      "name": "TransferFailed",
      "type": "error"
    },
    {
      "inputs": [],
      "name": "WindowClosed",
      "type": "error"
    },
    {
      "inputs": [],
      "name": "WindowOpen",
      "type": "error"
    },
    {
      "inputs": [
        {
          "internalType": "enum BookEscrow.Status",
          "name": "current",
          "type": "uint8"
        },
        {
          "internalType": "enum BookEscrow.Status",
          "name": "required",
          "type": "uint8"
        }
      ],
      "name": "WrongStatus",
      "type": "error"
    },
    {
      "inputs": [],
      "name": "ZeroAmount",
      "type": "error"
    },
    {
      "anonymous": false,
      "inputs": [
        {
          "indexed": true,
          "internalType": "bytes32",
          "name": "id",
          "type": "bytes32"
        },
        {
          "indexed": true,
          "internalType": "address",
          "name": "buyer",
          "type": "address"
        },
        {
          "indexed": false,
          "internalType": "uint256",
          "name": "amount",
          "type": "uint256"
        }
      ],
      "name": "EmergencyRefund",
      "type": "event"
    },
    {
      "anonymous": false,
      "inputs": [
        {
          "indexed": true,
          "internalType": "bytes32",
          "name": "id",
          "type": "bytes32"
        },
        {
          "indexed": true,
          "internalType": "address",
          "name": "buyer",
          "type": "address"
        },
        {
          "indexed": false,
          "internalType": "address",
          "name": "token",
          "type": "address"
        },
        {
          "indexed": false,
          "internalType": "uint256",
          "name": "cost",
          "type": "uint256"
        },
        {
          "indexed": false,
          "internalType": "uint256",
          "name": "profit",
          "type": "uint256"
        },
        {
          "indexed": false,
          "internalType": "bytes32",
          "name": "buyerPubKey",
          "type": "bytes32"
        }
      ],
      "name": "OrderCreated",
      "type": "event"
    },
    {
      "anonymous": false,
      "inputs": [
        {
          "indexed": true,
          "internalType": "bytes32",
          "name": "id",
          "type": "bytes32"
        },
        {
          "indexed": false,
          "internalType": "bytes32",
          "name": "shippingHash",
          "type": "bytes32"
        },
        {
          "indexed": false,
          "internalType": "uint64",
          "name": "fulfilledAt",
          "type": "uint64"
        }
      ],
      "name": "OrderFulfilled",
      "type": "event"
    },
    {
      "anonymous": false,
      "inputs": [
        {
          "indexed": true,
          "internalType": "bytes32",
          "name": "id",
          "type": "bytes32"
        },
        {
          "indexed": true,
          "internalType": "address",
          "name": "buyer",
          "type": "address"
        },
        {
          "indexed": false,
          "internalType": "uint256",
          "name": "amount",
          "type": "uint256"
        }
      ],
      "name": "ProfitRefunded",
      "type": "event"
    },
    {
      "anonymous": false,
      "inputs": [
        {
          "indexed": true,
          "internalType": "bytes32",
          "name": "id",
          "type": "bytes32"
        },
        {
          "indexed": true,
          "internalType": "address",
          "name": "author",
          "type": "address"
        },
        {
          "indexed": false,
          "internalType": "uint256",
          "name": "amount",
          "type": "uint256"
        }
      ],
      "name": "ProfitReleased",
      "type": "event"
    },
    {
      "inputs": [],
      "name": "DISPUTE_WINDOW",
      "outputs": [
        {
          "internalType": "uint64",
          "name": "",
          "type": "uint64"
        }
      ],
      "stateMutability": "view",
      "type": "function"
    },
    {
      "inputs": [],
      "name": "FULFILLMENT_DEADLINE",
      "outputs": [
        {
          "internalType": "uint64",
          "name": "",
          "type": "uint64"
        }
      ],
      "stateMutability": "view",
      "type": "function"
    },
    {
      "inputs": [],
      "name": "author",
      "outputs": [
        {
          "internalType": "address",
          "name": "",
          "type": "address"
        }
      ],
      "stateMutability": "view",
      "type": "function"
    },
    {
      "inputs": [
        {
          "internalType": "bytes32",
          "name": "id",
          "type": "bytes32"
        }
      ],
      "name": "canClaimRefund",
      "outputs": [
        {
          "internalType": "bool",
          "name": "",
          "type": "bool"
        }
      ],
      "stateMutability": "view",
      "type": "function"
    },
    {
      "inputs": [
        {
          "internalType": "bytes32",
          "name": "id",
          "type": "bytes32"
        }
      ],
      "name": "canReleaseProfit",
      "outputs": [
        {
          "internalType": "bool",
          "name": "",
          "type": "bool"
        }
      ],
      "stateMutability": "view",
      "type": "function"
    },
    {
      "inputs": [
        {
          "internalType": "bytes32",
          "name": "id",
          "type": "bytes32"
        }
      ],
      "name": "claimProfitRefund",
      "outputs": [],
      "stateMutability": "nonpayable",
      "type": "function"
    },
    {
      "inputs": [
        {
          "internalType": "bytes32",
          "name": "id",
          "type": "bytes32"
        },
        {
          "internalType": "address",
          "name": "token",
          "type": "address"
        },
        {
          "internalType": "uint256",
          "name": "cost",
          "type": "uint256"
        },
        {
          "internalType": "uint256",
          "name": "profit",
          "type": "uint256"
        },
        {
          "internalType": "bytes32",
          "name": "buyerPubKey",
          "type": "bytes32"
        }
      ],
      "name": "createOrder",
      "outputs": [],
      "stateMutability": "nonpayable",
      "type": "function"
    },
    {
      "inputs": [
        {
          "internalType": "bytes32",
          "name": "id",
          "type": "bytes32"
        }
      ],
      "name": "disputeWindowEnd",
      "outputs": [
        {
          "internalType": "uint64",
          "name": "",
          "type": "uint64"
        }
      ],
      "stateMutability": "view",
      "type": "function"
    },
    {
      "inputs": [
        {
          "internalType": "bytes32",
          "name": "id",
          "type": "bytes32"
        }
      ],
      "name": "emergencyRefund",
      "outputs": [],
      "stateMutability": "nonpayable",
      "type": "function"
    },
    {
      "inputs": [
        {
          "internalType": "bytes32",
          "name": "",
          "type": "bytes32"
        }
      ],
      "name": "encryptedTrackings",
      "outputs": [
        {
          "internalType": "bytes",
          "name": "",
          "type": "bytes"
        }
      ],
      "stateMutability": "view",
      "type": "function"
    },
    {
      "inputs": [
        {
          "internalType": "bytes32",
          "name": "id",
          "type": "bytes32"
        },
        {
          "internalType": "bytes32",
          "name": "shippingHash",
          "type": "bytes32"
        },
        {
          "internalType": "bytes",
          "name": "encryptedTracking",
          "type": "bytes"
        }
      ],
      "name": "fulfillOrder",
      "outputs": [],
      "stateMutability": "nonpayable",
      "type": "function"
    },
    {
      "inputs": [
        {
          "internalType": "bytes32",
          "name": "id",
          "type": "bytes32"
        }
      ],
      "name": "getOrder",
      "outputs": [
        {
          "components": [
            {
              "internalType": "address",
              "name": "buyer",
              "type": "address"
            },
            {
              "internalType": "address",
              "name": "token",
              "type": "address"
            },
            {
              "internalType": "uint256",
              "name": "cost",
              "type": "uint256"
            },
            {
              "internalType": "uint256",
              "name": "profit",
              "type": "uint256"
            },
            {
              "internalType": "uint64",
              "name": "createdAt",
              "type": "uint64"
            },
            {
              "internalType": "uint64",
              "name": "fulfilledAt",
              "type": "uint64"
            },
            {
              "internalType": "bytes32",
              "name": "shippingHash",
              "type": "bytes32"
            },
            {
              "internalType": "bytes32",
              "name": "buyerPubKey",
              "type": "bytes32"
            },
            {
              "internalType": "enum BookEscrow.Status",
              "name": "status",
              "type": "uint8"
            }
          ],
          "internalType": "struct BookEscrow.Order",
          "name": "",
          "type": "tuple"
        }
      ],
      "stateMutability": "view",
      "type": "function"
    },
    {
      "inputs": [
        {
          "internalType": "bytes32",
          "name": "",
          "type": "bytes32"
        }
      ],
      "name": "orders",
      "outputs": [
        {
          "internalType": "address",
          "name": "buyer",
          "type": "address"
        },
        {
          "internalType": "address",
          "name": "token",
          "type": "address"
        },
        {
          "internalType": "uint256",
          "name": "cost",
          "type": "uint256"
        },
        {
          "internalType": "uint256",
          "name": "profit",
          "type": "uint256"
        },
        {
          "internalType": "uint64",
          "name": "createdAt",
          "type": "uint64"
        },
        {
          "internalType": "uint64",
          "name": "fulfilledAt",
          "type": "uint64"
        },
        {
          "internalType": "bytes32",
          "name": "shippingHash",
          "type": "bytes32"
        },
        {
          "internalType": "bytes32",
          "name": "buyerPubKey",
          "type": "bytes32"
        },
        {
          "internalType": "enum BookEscrow.Status",
          "name": "status",
          "type": "uint8"
        }
      ],
      "stateMutability": "view",
      "type": "function"
    },
    {
      "inputs": [
        {
          "internalType": "bytes32",
          "name": "id",
          "type": "bytes32"
        }
      ],
      "name": "releaseProfit",
      "outputs": [],
      "stateMutability": "nonpayable",
      "type": "function"
    },
    {
      "inputs": [
        {
          "internalType": "bytes32",
          "name": "id",
          "type": "bytes32"
        },
        {
          "internalType": "bytes",
          "name": "tracking",
          "type": "bytes"
        }
      ],
      "name": "updateTracking",
      "outputs": [],
      "stateMutability": "nonpayable",
      "type": "function"
    }
  ],
  "bytecode": "0x60a060405234801561001057600080fd5b5060405161178338038061178383398101604081905261002f91610088565b6001600160a01b0381166100775760405162461bcd60e51b815260206004820152600b60248201526a2d32b9379030baba3437b960a91b604482015260640160405180910390fd5b6001600160a01b03166080526100b8565b60006020828403121561009a57600080fd5b81516001600160a01b03811681146100b157600080fd5b9392505050565b60805161168d6100f66000396000818161023d01528181610606015281816106a80152818161071a015281816108720152610974015261168d6000f3fe608060405234801561001057600080fd5b50600436106100f55760003560e01c8063a6c3e6b911610097578063d92e0af211610066578063d92e0af2146102b0578063e96aeb5b146102c3578063f585dc57146102d6578063feacd71f146102e057600080fd5b8063a6c3e6b914610238578063b8bd576c14610277578063b9b350881461028a578063ce20372f1461029d57600080fd5b806379e6e039116100d357806379e6e039146101655780637ac96a56146101885780639c3f1e901461019d5780639d15f88e1461022557600080fd5b80635778472a146100fa57806373aa706614610123578063751947c114610145575b600080fd5b61010d61010836600461118b565b6102f3565b60405161011a91906111dc565b60405180910390f35b61012d62278d0081565b6040516001600160401b03909116815260200161011a565b61015861015336600461118b565b610400565b60405161011a9190611277565b61017861017336600461118b565b61049a565b604051901515815260200161011a565b61019b61019636600461118b565b610501565b005b6102106101ab36600461118b565b600060208190529081526040902080546001820154600283015460038401546004850154600586015460068701546007909701546001600160a01b03968716979690951695939492936001600160401b0380841694600160401b909404169260ff1689565b60405161011a999897969594939291906112c5565b61019b610233366004611375565b61070f565b61025f7f000000000000000000000000000000000000000000000000000000000000000081565b6040516001600160a01b03909116815260200161011a565b61019b6102853660046113c7565b610969565b61019b61029836600461118b565b610a4d565b61012d6102ab36600461118b565b610c3a565b61019b6102be36600461118b565b610c8f565b61019b6102d1366004611412565b610e87565b61012d621baf8081565b6101786102ee36600461118b565b611124565b6103406040805161012081018252600080825260208201819052918101829052606081018290526080810182905260a0810182905260c0810182905260e081018290529061010082015290565b6000828152602081815260409182902082516101208101845281546001600160a01b03908116825260018301541692810192909252600281015492820192909252600380830154606083015260048301546001600160401b038082166080850152600160401b9091041660a0830152600583015460c0830152600683015460e0830152600783015491929161010084019160ff909116908111156103e6576103e66111a4565b60038111156103f7576103f76111a4565b90525092915050565b6001602052600090815260409020805461041990611466565b80601f016020809104026020016040519081016040528092919081815260200182805461044590611466565b80156104925780601f1061046757610100808354040283529160200191610492565b820191906000526020600020905b81548152906001019060200180831161047557829003601f168201915b505050505081565b60008181526020819052604081206001600782015460ff1660038111156104c3576104c36111a4565b1480156104fa575060048101546104ee90621baf8090600160401b90046001600160401b03166114b6565b6001600160401b031642115b9392505050565b600081815260208190526040902080546001600160a01b03166105375760405163d36d896560e01b815260040160405180910390fd5b6001600782015460ff166003811115610552576105526111a4565b1461058557600781015460405163e064752b60e01b815261057c9160ff16906001906004016114dd565b60405180910390fd5b60048101546105a890621baf8090600160401b90046001600160401b03166114b6565b6001600160401b031642116105d05760405163a4229fab60e01b815260040160405180910390fd5b60078101805460ff19166002179055600381015480156106a657600182015460405163a9059cbb60e01b81526001600160a01b037f00000000000000000000000000000000000000000000000000000000000000008116600483015260248201849052600092169063a9059cbb906044016020604051808303816000875af1158015610660573d6000803e3d6000fd5b505050506040513d601f19601f8201168201806040525081019061068491906114f8565b9050806106a4576040516312171d8360e31b815260040160405180910390fd5b505b7f00000000000000000000000000000000000000000000000000000000000000006001600160a01b0316837fc87ea94744e515a141b53eba177ae006a4d9719e01cba87b603e92edd919d4028360405161070291815260200190565b60405180910390a3505050565b336001600160a01b037f00000000000000000000000000000000000000000000000000000000000000001614610758576040516316aac54f60e01b815260040160405180910390fd5b600084815260208190526040902080546001600160a01b031661078e5760405163d36d896560e01b815260040160405180910390fd5b6000600782015460ff1660038111156107a9576107a96111a4565b146107d357600781015460405163e064752b60e01b815261057c9160ff16906000906004016114dd565b60078101805460ff191660011790556004810180546001600160401b034216600160401b026fffffffffffffffff00000000000000001990911617905560058101849055811561083857600085815260016020526040902061083683858361157f565b505b600281015415610913576001810154600282015460405163a9059cbb60e01b81526000926001600160a01b03169163a9059cbb916108ae917f0000000000000000000000000000000000000000000000000000000000000000916004016001600160a01b03929092168252602082015260400190565b6020604051808303816000875af11580156108cd573d6000803e3d6000fd5b505050506040513d601f19601f820116820180604052508101906108f191906114f8565b905080610911576040516312171d8360e31b815260040160405180910390fd5b505b600481015460408051868152600160401b9092046001600160401b0316602083015286917fc90a7b74d4fa959730f53cf54046825d6cef5ffbccc0fc881c8b775c99ec1fdf910160405180910390a25050505050565b336001600160a01b037f000000000000000000000000000000000000000000000000000000000000000016146109b2576040516316aac54f60e01b815260040160405180910390fd5b600083815260208190526040902080546001600160a01b03166109e85760405163d36d896560e01b815260040160405180910390fd5b6001600782015460ff166003811115610a0357610a036111a4565b14610a2d57600781015460405163e064752b60e01b815261057c9160ff16906001906004016114dd565b6000848152600160205260409020610a4683858361157f565b5050505050565b600081815260208190526040902080546001600160a01b0316610a835760405163d36d896560e01b815260040160405180910390fd5b80546001600160a01b03163314610aad5760405163239700bf60e11b815260040160405180910390fd5b6001600782015460ff166003811115610ac857610ac86111a4565b14610af257600781015460405163e064752b60e01b815261057c9160ff16906001906004016114dd565b6004810154610b1590621baf8090600160401b90046001600160401b03166114b6565b6001600160401b0316421115610b3e57604051632f23cfcd60e01b815260040160405180910390fd5b60078101805460ff191660039081179091558101548015610bfa576001820154825460405163a9059cbb60e01b81526001600160a01b03918216600482015260248101849052600092919091169063a9059cbb906044016020604051808303816000875af1158015610bb4573d6000803e3d6000fd5b505050506040513d601f19601f82011682018060405250810190610bd891906114f8565b905080610bf8576040516312171d8360e31b815260040160405180910390fd5b505b81546040518281526001600160a01b039091169084907f3a84b32841d2d6269a291738c391c36efcaa89d2869bd068ce64014dba3bd9f690602001610702565b60008181526020819052604081206004810154600160401b90046001600160401b03168203610c6c5750600092915050565b60048101546104fa90621baf8090600160401b90046001600160401b03166114b6565b600081815260208190526040902080546001600160a01b0316610cc55760405163d36d896560e01b815260040160405180910390fd5b80546001600160a01b03163314610cef5760405163239700bf60e11b815260040160405180910390fd5b6000600782015460ff166003811115610d0a57610d0a6111a4565b14610d3457600781015460405163e064752b60e01b815261057c9160ff16906000906004016114dd565b6004810154610d509062278d00906001600160401b03166114b6565b6001600160401b03164211610d7857604051633376277360e11b815260040160405180910390fd5b60078101805460ff191660039081179091558101546002820154600091610d9e9161163e565b90508015610e47576001820154825460405163a9059cbb60e01b81526001600160a01b03918216600482015260248101849052600092919091169063a9059cbb906044016020604051808303816000875af1158015610e01573d6000803e3d6000fd5b505050506040513d601f19601f82011682018060405250810190610e2591906114f8565b905080610e45576040516312171d8360e31b815260040160405180910390fd5b505b81546040518281526001600160a01b039091169084907f93f8973f493b0e50d6d487c0901e01b044ddd821b5e779a2b2fc2cca93e2d45690602001610702565b6000858152602081905260409020546001600160a01b031615610ebd57604051630e59146360e41b815260040160405180910390fd5b82158015610ec9575081155b15610ee757604051631f2a200560e01b815260040160405180910390fd5b6000610ef3838561163e565b6040516323b872dd60e01b8152336004820152306024820152604481018290529091506000906001600160a01b038716906323b872dd906064016020604051808303816000875af1158015610f4c573d6000803e3d6000fd5b505050506040513d601f19601f82011682018060405250810190610f7091906114f8565b905080610f90576040516312171d8360e31b815260040160405180910390fd5b60408051610120810182523381526001600160a01b0388166020820152908101869052606081018590526001600160401b0342166080820152600060a0820181905260c0820181905260e0820185905261010082015260008881526020818152604091829020835181546001600160a01b039182166001600160a01b0319918216178355928501516001808401805492909316919094161790559183015160028301556060830151600380840191909155608084015160048401805460a08701516001600160401b03908116600160401b026fffffffffffffffffffffffffffffffff1990921693169290921791909117905560c0840151600584015560e084015160068401556101008401516007840180549193909260ff199092169184908111156110bf576110bf6111a4565b021790555050604080516001600160a01b0389168152602081018890529081018690526060810185905233915088907fa30b4da0e57cd7dda9e37536547519f3ac17a06fcf6250babd9c70015c2140a89060800160405180910390a350505050505050565b60008181526020819052604081206001600782015460ff16600381111561114d5761114d6111a4565b1480156104fa5750600481015461117890621baf8090600160401b90046001600160401b03166114b6565b6001600160401b03164211159392505050565b60006020828403121561119d57600080fd5b5035919050565b634e487b7160e01b600052602160045260246000fd5b600481106111d857634e487b7160e01b600052602160045260246000fd5b9052565b81516001600160a01b03908116825260208084015190911690820152604080830151908201526060808301519082015260808083015161012083019161122c908401826001600160401b03169052565b5060a083015161124760a08401826001600160401b03169052565b5060c083015160c083015260e083015160e08301526101008084015161126f828501826111ba565b505092915050565b600060208083528351808285015260005b818110156112a457858101830151858201604001528201611288565b506000604082860101526040601f19601f8301168501019250505092915050565b6001600160a01b038a811682528916602082015260408101889052606081018790526001600160401b038681166080830152851660a082015260c0810184905260e08101839052610120810161131f6101008301846111ba565b9a9950505050505050505050565b60008083601f84011261133f57600080fd5b5081356001600160401b0381111561135657600080fd5b60208301915083602082850101111561136e57600080fd5b9250929050565b6000806000806060858703121561138b57600080fd5b843593506020850135925060408501356001600160401b038111156113af57600080fd5b6113bb8782880161132d565b95989497509550505050565b6000806000604084860312156113dc57600080fd5b8335925060208401356001600160401b038111156113f957600080fd5b6114058682870161132d565b9497909650939450505050565b600080600080600060a0868803121561142a57600080fd5b8535945060208601356001600160a01b038116811461144857600080fd5b94979496505050506040830135926060810135926080909101359150565b600181811c9082168061147a57607f821691505b60208210810361149a57634e487b7160e01b600052602260045260246000fd5b50919050565b634e487b7160e01b600052601160045260246000fd5b6001600160401b038181168382160190808211156114d6576114d66114a0565b5092915050565b604081016114eb82856111ba565b6104fa60208301846111ba565b60006020828403121561150a57600080fd5b815180151581146104fa57600080fd5b634e487b7160e01b600052604160045260246000fd5b601f82111561157a57600081815260208120601f850160051c810160208610156115575750805b601f850160051c820191505b8181101561157657828155600101611563565b5050505b505050565b6001600160401b038311156115965761159661151a565b6115aa836115a48354611466565b83611530565b6000601f8411600181146115de57600085156115c65750838201355b600019600387901b1c1916600186901b178355610a46565b600083815260209020601f19861690835b8281101561160f57868501358255602094850194600190920191016115ef565b508682101561162c5760001960f88860031b161c19848701351681555b505060018560011b0183555050505050565b80820180821115611651576116516114a0565b9291505056fea2646970667358221220df88981e9ac1741b6b1fa9d2f4036016b2d44f122d15709402912c268b87b60964736f6c63430008140033",
  "linkReferences": {},
  "deployedLinkReferences": {}
}