{"contracts/BookEscrow.sol":{"BookEscrow":{"abi":[{"inputs":[{"internalType":"address","name":"_author","type":"address"}],"stateMutability":"nonpayable","type":"constructor"},{"inputs":[],"name":"DeadlineNotReached","type":"error"},{"inputs":[],"name":"NotAuthor","type":"error"},{"inputs":[],"name":"NotBuyer","type":"error"},{"inputs":[],"name":"OrderExists","type":"error"},{"inputs":[],"name":"OrderNotFound","type":"error"},{"inputs":[],"name":"TransferFailed","type":"error"},{"inputs":[],"name":"WindowClosed","type":"error"},{"inputs":[],"name":"WindowOpen","type":"error"},{"inputs":[{"internalType":"enum BookEscrow.Status","name":"current","type":"uint8"},{"internalType":"enum BookEscrow.Status","name":"required","type":"uint8"}],"name":"WrongStatus","type":"error"},{"inputs":[],"name":"ZeroAmount","type":"error"},{"anonymous":false,"inputs":[{"indexed":true,"internalType":"bytes32","name":"id","type":"bytes32"},{"indexed":true,"internalType":"address","name":"buyer","type":"address"},{"indexed":false,"internalType":"uint256","name":"amount","type":"uint256"}],"name":"EmergencyRefund","type":"event"},{"anonymous":false,"inputs":[{"indexed":true,"internalType":"bytes32","name":"id","type":"bytes32"},{"indexed":true,"internalType":"address","name":"buyer","type":"address"},{"indexed":false,"internalType":"address","name":"token","type":"address"},{"indexed":false,"internalType":"uint256","name":"cost","type":"uint256"},{"indexed":false,"internalType":"uint256","name":"profit","type":"uint256"}],"name":"OrderCreated","type":"event"},{"anonymous":false,"inputs":[{"indexed":true,"internalType":"bytes32","name":"id","type":"bytes32"},{"indexed":false,"internalType":"bytes32","name":"shippingHash","type":"bytes32"},{"indexed":false,"internalType":"uint64","name":"fulfilledAt","type":"uint64"}],"name":"OrderFulfilled","type":"event"},{"anonymous":false,"inputs":[{"indexed":true,"internalType":"bytes32","name":"id","type":"bytes32"},{"indexed":true,"internalType":"address","name":"buyer","type":"address"},{"indexed":false,"internalType":"uint256","name":"amount","type":"uint256"}],"name":"ProfitRefunded","type":"event"},{"anonymous":false,"inputs":[{"indexed":true,"internalType":"bytes32","name":"id","type":"bytes32"},{"indexed":true,"internalType":"address","name":"author","type":"address"},{"indexed":false,"internalType":"uint256","name":"amount","type":"uint256"}],"name":"ProfitReleased","type":"event"},{"inputs":[],"name":"DISPUTE_WINDOW","outputs":[{"internalType":"uint64","name":"","type":"uint64"}],"stateMutability":"view","type":"function"},{"inputs":[],"name":"FULFILLMENT_DEADLINE","outputs":[{"internalType":"uint64","name":"","type":"uint64"}],"stateMutability":"view","type":"function"},{"inputs":[],"name":"author","outputs":[{"internalType":"address","name":"","type":"address"}],"stateMutability":"view","type":"function"},{"inputs":[{"internalType":"bytes32","name":"id","type":"bytes32"}],"name":"canClaimRefund","outputs":[{"internalType":"bool","name":"","type":"bool"}],"stateMutability":"view","type":"function"},{"inputs":[{"internalType":"bytes32","name":"id","type":"bytes32"}],"name":"canReleaseProfit","outputs":[{"internalType":"bool","name":"","type":"bool"}],"stateMutability":"view","type":"function"},{"inputs":[{"internalType":"bytes32","name":"id","type":"bytes32"}],"name":"claimProfitRefund","outputs":[],"stateMutability":"nonpayable","type":"function"},{"inputs":[{"internalType":"bytes32","name":"id","type":"bytes32"},{"internalType":"address","name":"token","type":"address"},{"internalType":"uint256","name":"cost","type":"uint256"},{"internalType":"uint256","name":"profit","type":"uint256"}],"name":"createOrder","outputs":[],"stateMutability":"nonpayable","type":"function"},{"inputs":[{"internalType":"bytes32","name":"id","type":"bytes32"}],"name":"disputeWindowEnd","outputs":[{"internalType":"uint64","name":"","type":"uint64"}],"stateMutability":"view","type":"function"},{"inputs":[{"internalType":"bytes32","name":"id","type":"bytes32"}],"name":"emergencyRefund","outputs":[],"stateMutability":"nonpayable","type":"function"},{"inputs":[{"internalType":"bytes32","name":"id","type":"bytes32"},{"internalType":"bytes32","name":"shippingHash","type":"bytes32"}],"name":"fulfillOrder","outputs":[],"stateMutability":"nonpayable","type":"function"},{"inputs":[{"internalType":"bytes32","name":"id","type":"bytes32"}],"name":"getOrder","outputs":[{"components":[{"internalType":"address","name":"buyer","type":"address"},{"internalType":"address","name":"token","type":"address"},{"internalType":"uint256","name":"cost","type":"uint256"},{"internalType":"uint256","name":"profit","type":"uint256"},{"internalType":"uint64","name":"createdAt","type":"uint64"},{"internalType":"uint64","name":"fulfilledAt","type":"uint64"},{"internalType":"bytes32","name":"shippingHash","type":"bytes32"},{"internalType":"enum BookEscrow.Status","name":"status","type":"uint8"}],"internalType":"struct BookEscrow.Order","name":"","type":"tuple"}],"stateMutability":"view","type":"function"},{"inputs":[{"internalType":"bytes32","name":"","type":"bytes32"}],"name":"orders","outputs":[{"internalType":"address","name":"buyer","type":"address"},{"internalType":"address","name":"token","type":"address"},{"internalType":"uint256","name":"cost","type":"uint256"},{"internalType":"uint256","name":"profit","type":"uint256"},{"internalType":"uint64","name":"createdAt","type":"uint64"},{"internalType":"uint64","name":"fulfilledAt","type":"uint64"},{"internalType":"bytes32","name":"shippingHash","type":"bytes32"},{"internalType":"enum BookEscrow.Status","name":"status","type":"uint8"}],"stateMutability":"view","type":"function"},{"inputs":[{"internalType":"bytes32","name":"id","type":"bytes32"}],"name":"releaseProfit","outputs":[],"stateMutability":"nonpayable","type":"function"}],"evm":{"bytecode":{"linkReferences":{},"object":"60a060405234801561001057600080fd5b506040516112a63803806112a683398101604081905261002f91610088565b6001600160a01b0381166100775760405162461bcd60e51b815260206004820152600b60248201526a2d32b9379030baba3437b960a91b604482015260640160405180910390fd5b6001600160a01b03166080526100b8565b60006020828403121561009a57600080fd5b81516001600160a01b03811681146100b157600080fd5b9392505050565b6080516111b76100ef600039600081816101f10152818161077c0152818161081e01528181610ad20152610c0901526111b76000f3fe608060405234801561001057600080fd5b50600436106100cf5760003560e01c8063a6c3e6b91161008c578063d25f180b11610066578063d25f180b14610251578063d92e0af214610264578063f585dc5714610277578063feacd71f1461028157600080fd5b8063a6c3e6b9146101ec578063b9b350881461022b578063ce20372f1461023e57600080fd5b8063134e9c67146100d45780635778472a146100e957806373aa70661461011257806379e6e039146101345780637ac96a56146101575780639c3f1e901461016a575b600080fd5b6100e76100e2366004610f5d565b610294565b005b6100fc6100f7366004610fa6565b610516565b6040516101099190610ff7565b60405180910390f35b61011c62278d0081565b6040516001600160401b039091168152602001610109565b610147610142366004610fa6565b610610565b6040519015158152602001610109565b6100e7610165366004610fa6565b610677565b6101d8610178366004610fa6565b60006020819052908152604090208054600182015460028301546003840154600485015460058601546006909601546001600160a01b03958616969590941694929391926001600160401b0380831693600160401b909304169160ff1688565b604051610109989796959493929190611074565b6102137f000000000000000000000000000000000000000000000000000000000000000081565b6040516001600160a01b039091168152602001610109565b6100e7610239366004610fa6565b610885565b61011c61024c366004610fa6565b610a72565b6100e761025f3660046110d3565b610ac7565b6100e7610272366004610fa6565b610cfe565b61011c621baf8081565b61014761028f366004610fa6565b610ef6565b6000848152602081905260409020546001600160a01b0316156102ca57604051630e59146360e41b815260040160405180910390fd5b811580156102d6575080155b156102f457604051631f2a200560e01b815260040160405180910390fd5b6000610300828461110b565b6040516323b872dd60e01b8152336004820152306024820152604481018290529091506000906001600160a01b038616906323b872dd906064016020604051808303816000875af1158015610359573d6000803e3d6000fd5b505050506040513d601f19601f8201168201806040525081019061037d9190611124565b90508061039d576040516312171d8360e31b815260040160405180910390fd5b60408051610100810182523381526001600160a01b0387166020820152908101859052606081018490526001600160401b0342166080820152600060a0820181905260c0820181905260e082015260008781526020818152604091829020835181546001600160a01b039182166001600160a01b0319918216178355928501516001808401805492909316919094161790559183015160028301556060830151600380840191909155608084015160048401805460a08701516001600160401b03908116600160401b026fffffffffffffffffffffffffffffffff1990921693169290921791909117905560c0840151600584015560e08401516006840180549193909260ff199092169184908111156104b9576104b9610fbf565b021790555050604080516001600160a01b03881681526020810187905290810185905233915087907f9a81642995eb82c61150ace07ccae644c97b69fa389b64bff4fc2814f7b77bc09060600160405180910390a3505050505050565b61055b6040805161010081018252600080825260208201819052918101829052606081018290526080810182905260a0810182905260c081018290529060e082015290565b6000828152602081815260409182902082516101008101845281546001600160a01b03908116825260018301541692810192909252600281015492820192909252600380830154606083015260048301546001600160401b038082166080850152600160401b9091041660a0830152600583015460c0830152600683015491929160e084019160ff909116908111156105f6576105f6610fbf565b600381111561060757610607610fbf565b90525092915050565b60008181526020819052604081206001600682015460ff16600381111561063957610639610fbf565b1480156106705750600481015461066490621baf8090600160401b90046001600160401b0316611146565b6001600160401b031642115b9392505050565b600081815260208190526040902080546001600160a01b03166106ad5760405163d36d896560e01b815260040160405180910390fd5b6001600682015460ff1660038111156106c8576106c8610fbf565b146106fb57600681015460405163e064752b60e01b81526106f29160ff1690600190600401611166565b60405180910390fd5b600481015461071e90621baf8090600160401b90046001600160401b0316611146565b6001600160401b031642116107465760405163a4229fab60e01b815260040160405180910390fd5b60068101805460ff191660021790556003810154801561081c57600182015460405163a9059cbb60e01b81526001600160a01b037f00000000000000000000000000000000000000000000000000000000000000008116600483015260248201849052600092169063a9059cbb906044016020604051808303816000875af11580156107d6573d6000803e3d6000fd5b505050506040513d601f19601f820116820180604052508101906107fa9190611124565b90508061081a576040516312171d8360e31b815260040160405180910390fd5b505b7f00000000000000000000000000000000000000000000000000000000000000006001600160a01b0316837fc87ea94744e515a141b53eba177ae006a4d9719e01cba87b603e92edd919d4028360405161087891815260200190565b60405180910390a3505050565b600081815260208190526040902080546001600160a01b03166108bb5760405163d36d896560e01b815260040160405180910390fd5b80546001600160a01b031633146108e55760405163239700bf60e11b815260040160405180910390fd5b6001600682015460ff16600381111561090057610900610fbf565b1461092a57600681015460405163e064752b60e01b81526106f29160ff1690600190600401611166565b600481015461094d90621baf8090600160401b90046001600160401b0316611146565b6001600160401b031642111561097657604051632f23cfcd60e01b815260040160405180910390fd5b60068101805460ff191660039081179091558101548015610a32576001820154825460405163a9059cbb60e01b81526001600160a01b03918216600482015260248101849052600092919091169063a9059cbb906044016020604051808303816000875af11580156109ec573d6000803e3d6000fd5b505050506040513d601f19601f82011682018060405250810190610a109190611124565b905080610a30576040516312171d8360e31b815260040160405180910390fd5b505b81546040518281526001600160a01b039091169084907f3a84b32841d2d6269a291738c391c36efcaa89d2869bd068ce64014dba3bd9f690602001610878565b60008181526020819052604081206004810154600160401b90046001600160401b03168203610aa45750600092915050565b600481015461067090621baf8090600160401b90046001600160401b0316611146565b336001600160a01b037f00000000000000000000000000000000000000000000000000000000000000001614610b10576040516316aac54f60e01b815260040160405180910390fd5b600082815260208190526040902080546001600160a01b0316610b465760405163d36d896560e01b815260040160405180910390fd5b6000600682015460ff166003811115610b6157610b61610fbf565b14610b8b57600681015460405163e064752b60e01b81526106f29160ff1690600090600401611166565b60068101805460ff191660011790556004810180546001600160401b034216600160401b026fffffffffffffffff00000000000000001990911617905560058101829055600281015415610caa576001810154600282015460405163a9059cbb60e01b81526000926001600160a01b03169163a9059cbb91610c45917f0000000000000000000000000000000000000000000000000000000000000000916004016001600160a01b03929092168252602082015260400190565b6020604051808303816000875af1158015610c64573d6000803e3d6000fd5b505050506040513d601f19601f82011682018060405250810190610c889190611124565b905080610ca8576040516312171d8360e31b815260040160405180910390fd5b505b600481015460408051848152600160401b9092046001600160401b0316602083015284917fc90a7b74d4fa959730f53cf54046825d6cef5ffbccc0fc881c8b775c99ec1fdf910160405180910390a2505050565b600081815260208190526040902080546001600160a01b0316610d345760405163d36d896560e01b815260040160405180910390fd5b80546001600160a01b03163314610d5e5760405163239700bf60e11b815260040160405180910390fd5b6000600682015460ff166003811115610d7957610d79610fbf565b14610da357600681015460405163e064752b60e01b81526106f29160ff1690600090600401611166565b6004810154610dbf9062278d00906001600160401b0316611146565b6001600160401b03164211610de757604051633376277360e11b815260040160405180910390fd5b60068101805460ff191660039081179091558101546002820154600091610e0d9161110b565b90508015610eb6576001820154825460405163a9059cbb60e01b81526001600160a01b03918216600482015260248101849052600092919091169063a9059cbb906044016020604051808303816000875af1158015610e70573d6000803e3d6000fd5b505050506040513d601f19601f82011682018060405250810190610e949190611124565b905080610eb4576040516312171d8360e31b815260040160405180910390fd5b505b81546040518281526001600160a01b039091169084907f93f8973f493b0e50d6d487c0901e01b044ddd821b5e779a2b2fc2cca93e2d45690602001610878565b60008181526020819052604081206001600682015460ff166003811115610f1f57610f1f610fbf565b14801561067057506004810154610f4a90621baf8090600160401b90046001600160401b0316611146565b6001600160401b03164211159392505050565b60008060008060808587031215610f7357600080fd5b8435935060208501356001600160a01b0381168114610f9157600080fd5b93969395505050506040820135916060013590565b600060208284031215610fb857600080fd5b5035919050565b634e487b7160e01b600052602160045260246000fd5b60048110610ff357634e487b7160e01b600052602160045260246000fd5b9052565b60006101008201905060018060a01b0380845116835280602085015116602084015250604083015160408301526060830151606083015260808301516001600160401b0380821660808501528060a08601511660a0850152505060c083015160c083015260e083015161106d60e0840182610fd5565b5092915050565b6001600160a01b0389811682528816602082015260408101879052606081018690526001600160401b038581166080830152841660a082015260c0810183905261010081016110c660e0830184610fd5565b9998505050505050505050565b600080604083850312156110e657600080fd5b50508035926020909101359150565b634e487b7160e01b600052601160045260246000fd5b8082018082111561111e5761111e6110f5565b92915050565b60006020828403121561113657600080fd5b8151801515811461067057600080fd5b6001600160401b0381811683821601908082111561106d5761106d6110f5565b604081016111748285610fd5565b6106706020830184610fd556fea26469706673582212209f9c5757b4f440f302854c3ff21c91fb496266a11d2bf6b18b365d2a335be5a764736f6c63430008140033","opcodes":"PUSH1 0xA0 PUSH1 0x40 MSTORE CALLVALUE DUP1 ISZERO PUSH2 0x10 JUMPI PUSH1 0x0 DUP1 REVERT JUMPDEST POP PUSH1 0x40 MLOAD PUSH2 0x12A6 CODESIZE SUB DUP1 PUSH2 0x12A6 DUP4 CODECOPY DUP2 ADD PUSH1 0x40 DUP2 SWAP1 MSTORE PUSH2 0x2F SWAP2 PUSH2 0x88 JUMP JUMPDEST PUSH1 0x1 PUSH1 0x1 PUSH1 0xA0 SHL SUB DUP2 AND PUSH2 0x77 JUMPI PUSH1 0x40 MLOAD PUSH3 0x461BCD PUSH1 0xE5 SHL DUP2 MSTORE PUSH1 0x20 PUSH1 0x4 DUP3 ADD MSTORE PUSH1 0xB PUSH1 0x24 DUP3 ADD MSTORE PUSH11 0x2D32B9379030BABA3437B9 PUSH1 0xA9 SHL PUSH1 0x44 DUP3 ADD MSTORE PUSH1 0x64 ADD PUSH1 0x40 MLOAD DUP1 SWAP2 SUB SWAP1 REVERT JUMPDEST PUSH1 0x1 PUSH1 0x1 PUSH1 0xA0 SHL SUB AND PUSH1 0x80 MSTORE PUSH2 0xB8 JUMP JUMPDEST PUSH1 0x0 PUSH1 0x20 DUP3 DUP5 SUB SLT ISZERO PUSH2 0x9A JUMPI PUSH1 0x0 DUP1 REVERT JUMPDEST DUP2 MLOAD PUSH1 0x1 PUSH1 0x1 PUSH1 0xA0 SHL SUB DUP2 AND DUP2 EQ PUSH2 0xB1 JUMPI PUSH1 0x0 DUP1 REVERT JUMPDEST SWAP4 SWAP3 POP POP POP JUMP JUMPDEST PUSH1 0x80 MLOAD PUSH2 0x11B7 PUSH2 0xEF PUSH1 0x0 CODECOPY PUSH1 0x0 DUP2 DUP2 PUSH2 0x1F1 ADD MSTORE DUP2 DUP2 PUSH2 0x77C ADD MSTORE DUP2 DUP2 PUSH2 0x81E ADD MSTORE DUP2 DUP2 PUSH2 0xAD2 ADD MSTORE PUSH2 0xC09 ADD MSTORE PUSH2 0x11B7 PUSH1 0x0 RETURN INVALID PUSH1 0x80 PUSH1 0x40 MSTORE CALLVALUE DUP1 ISZERO PUSH2 0x10 JUMPI PUSH1 0x0 DUP1 REVERT JUMPDEST POP PUSH1 0x4 CALLDATASIZE LT PUSH2 0xCF JUMPI PUSH1 0x0 CALLDATALOAD PUSH1 0xE0 SHR DUP1 PUSH4 0xA6C3E6B9 GT PUSH2 0x8C JUMPI DUP1 PUSH4 0xD25F180B GT PUSH2 0x66 JUMPI DUP1 PUSH4 0xD25F180B EQ PUSH2 0x251 JUMPI DUP1 PUSH4 0xD92E0AF2 EQ PUSH2 0x264 JUMPI DUP1 PUSH4 0xF585DC57 EQ PUSH2 0x277 JUMPI DUP1 PUSH4 0xFEACD71F EQ PUSH2 0x281 JUMPI PUSH1 0x0 DUP1 REVERT JUMPDEST DUP1 PUSH4 0xA6C3E6B9 EQ PUSH2 0x1EC JUMPI DUP1 PUSH4 0xB9B35088 EQ PUSH2 0x22B JUMPI DUP1 PUSH4 0xCE20372F EQ PUSH2 0x23E JUMPI PUSH1 0x0 DUP1 REVERT JUMPDEST DUP1 PUSH4 0x134E9C67 EQ PUSH2 0xD4 JUMPI DUP1 PUSH4 0x5778472A EQ PUSH2 0xE9 JUMPI DUP1 PUSH4 0x73AA7066 EQ PUSH2 0x112 JUMPI DUP1 PUSH4 0x79E6E039 EQ PUSH2 0x134 JUMPI DUP1 PUSH4 0x7AC96A56 EQ PUSH2 0x157 JUMPI DUP1 PUSH4 0x9C3F1E90 EQ PUSH2 0x16A JUMPI JUMPDEST PUSH1 0x0 DUP1 REVERT JUMPDEST PUSH2 0xE7 PUSH2 0xE2 CALLDATASIZE PUSH1 0x4 PUSH2 0xF5D JUMP JUMPDEST PUSH2 0x294 JUMP JUMPDEST STOP JUMPDEST PUSH2 0xFC PUSH2 0xF7 CALLDATASIZE PUSH1 0x4 PUSH2 0xFA6 JUMP JUMPDEST PUSH2 0x516 JUMP JUMPDEST PUSH1 0x40 MLOAD PUSH2 0x109 SWAP2 SWAP1 PUSH2 0xFF7 JUMP JUMPDEST PUSH1 0x40 MLOAD DUP1 SWAP2 SUB SWAP1 RETURN JUMPDEST PUSH2 0x11C PUSH3 0x278D00 DUP2 JUMP JUMPDEST PUSH1 0x40 MLOAD PUSH1 0x1 PUSH1 0x1 PUSH1 0x40 SHL SUB SWAP1 SWAP2 AND DUP2 MSTORE PUSH1 0x20 ADD PUSH2 0x109 JUMP JUMPDEST PUSH2 0x147 PUSH2 0x142 CALLDATASIZE PUSH1 0x4 PUSH2 0xFA6 JUMP JUMPDEST PUSH2 0x610 JUMP JUMPDEST PUSH1 0x40 MLOAD SWAP1 ISZERO ISZERO DUP2 MSTORE PUSH1 0x20 ADD PUSH2 0x109 JUMP JUMPDEST PUSH2 0xE7 PUSH2 0x165 CALLDATASIZE PUSH1 0x4 PUSH2 0xFA6 JUMP JUMPDEST PUSH2 0x677 JUMP JUMPDEST PUSH2 0x1D8 PUSH2 0x178 CALLDATASIZE PUSH1 0x4 PUSH2 0xFA6 JUMP JUMPDEST PUSH1 0x0 PUSH1 0x20 DUP2 SWAP1 MSTORE SWAP1 DUP2 MSTORE PUSH1 0x40 SWAP1 KECCAK256 DUP1 SLOAD PUSH1 0x1 DUP3 ADD SLOAD PUSH1 0x2 DUP4 ADD SLOAD PUSH1 0x3 DUP5 ADD SLOAD PUSH1 0x4 DUP6 ADD SLOAD PUSH1 0x5 DUP7 ADD SLOAD PUSH1 0x6 SWAP1 SWAP7 ADD SLOAD PUSH1 0x1 PUSH1 0x1 PUSH1 0xA0 SHL SUB SWAP6 DUP7 AND SWAP7 SWAP6 SWAP1 SWAP5 AND SWAP5 SWAP3 SWAP4 SWAP2 SWAP3 PUSH1 0x1 PUSH1 0x1 PUSH1 0x40 SHL SUB DUP1 DUP4 AND SWAP4 PUSH1 0x1 PUSH1 0x40 SHL SWAP1 SWAP4 DIV AND SWAP2 PUSH1 0xFF AND DUP9 JUMP JUMPDEST PUSH1 0x40 MLOAD PUSH2 0x109 SWAP9 SWAP8 SWAP7 SWAP6 SWAP5 SWAP4 SWAP3 SWAP2 SWAP1 PUSH2 0x1074 JUMP JUMPDEST PUSH2 0x213 PUSH32 0x0 DUP2 JUMP JUMPDEST PUSH1 0x40 MLOAD PUSH1 0x1 PUSH1 0x1 PUSH1 0xA0 SHL SUB SWAP1 SWAP2 AND DUP2 MSTORE PUSH1 0x20 ADD PUSH2 0x109 JUMP JUMPDEST PUSH2 0xE7 PUSH2 0x239 CALLDATASIZE PUSH1 0x4 PUSH2 0xFA6 JUMP JUMPDEST PUSH2 0x885 JUMP JUMPDEST PUSH2 0x11C PUSH2 0x24C CALLDATASIZE PUSH1 0x4 PUSH2 0xFA6 JUMP JUMPDEST PUSH2 0xA72 JUMP JUMPDEST PUSH2 0xE7 PUSH2 0x25F CALLDATASIZE PUSH1 0x4 PUSH2 0x10D3 JUMP JUMPDEST PUSH2 0xAC7 JUMP JUMPDEST PUSH2 0xE7 PUSH2 0x272 CALLDATASIZE PUSH1 0x4 PUSH2 0xFA6 JUMP JUMPDEST PUSH2 0xCFE JUMP JUMPDEST PUSH2 0x11C PUSH3 0x1BAF80 DUP2 JUMP JUMPDEST PUSH2 0x147 PUSH2 0x28F CALLDATASIZE PUSH1 0x4 PUSH2 0xFA6 JUMP JUMPDEST PUSH2 0xEF6 JUMP JUMPDEST PUSH1 0x0 DUP5 DUP2 MSTORE PUSH1 0x20 DUP2 SWAP1 MSTORE PUSH1 0x40 SWAP1 KECCAK256 SLOAD PUSH1 0x1 PUSH1 0x1 PUSH1 0xA0 SHL SUB AND ISZERO PUSH2 0x2CA JUMPI PUSH1 0x40 MLOAD PUSH4 0xE591463 PUSH1 0xE4 SHL DUP2 MSTORE PUSH1 0x4 ADD PUSH1 0x40 MLOAD DUP1 SWAP2 SUB SWAP1 REVERT JUMPDEST DUP2 ISZERO DUP1 ISZERO PUSH2 0x2D6 JUMPI POP DUP1 ISZERO JUMPDEST ISZERO PUSH2 0x2F4 JUMPI PUSH1 0x40 MLOAD PUSH4 0x1F2A2005 PUSH1 0xE0 SHL DUP2 MSTORE PUSH1 0x4 ADD PUSH1 0x40 MLOAD DUP1 SWAP2 SUB SWAP1 REVERT JUMPDEST PUSH1 0x0 PUSH2 0x300 DUP3 DUP5 PUSH2 0x110B JUMP JUMPDEST PUSH1 0x40 MLOAD PUSH4 0x23B872DD PUSH1 0xE0 SHL DUP2 MSTORE CALLER PUSH1 0x4 DUP3 ADD MSTORE ADDRESS PUSH1 0x24 DUP3 ADD MSTORE PUSH1 0x44 DUP2 ADD DUP3 SWAP1 MSTORE SWAP1 SWAP2 POP PUSH1 0x0 SWAP1 PUSH1 0x1 PUSH1 0x1 PUSH1 0xA0 SHL SUB DUP7 AND SWAP1 PUSH4 0x23B872DD SWAP1 PUSH1 0x64 ADD PUSH1 0x20 PUSH1 0x40 MLOAD DUP1 DUP4 SUB DUP2 PUSH1 0x0 DUP8 GAS CALL ISZERO DUP1 ISZERO PUSH2 0x359 JUMPI RETURNDATASIZE PUSH1 0x0 DUP1 RETURNDATACOPY RETURNDATASIZE PUSH1 0x0 REVERT JUMPDEST POP POP POP POP PUSH1 0x40 MLOAD RETURNDATASIZE PUSH1 0x1F NOT PUSH1 0x1F DUP3 ADD AND DUP3 ADD DUP1 PUSH1 0x40 MSTORE POP DUP2 ADD SWAP1 PUSH2 0x37D SWAP2 SWAP1 PUSH2 0x1124 JUMP JUMPDEST SWAP1 POP DUP1 PUSH2 0x39D JUMPI PUSH1 0x40 MLOAD PUSH4 0x12171D83 PUSH1 0xE3 SHL DUP2 MSTORE PUSH1 0x4 ADD PUSH1 0x40 MLOAD DUP1 SWAP2 SUB SWAP1 REVERT JUMPDEST PUSH1 0x40 DUP1 MLOAD PUSH2 0x100 DUP2 ADD DUP3 MSTORE CALLER DUP2 MSTORE PUSH1 0x1 PUSH1 0x1 PUSH1 0xA0 SHL SUB DUP8 AND PUSH1 0x20 DUP3 ADD MSTORE SWAP1 DUP2 ADD DUP6 SWAP1 MSTORE PUSH1 0x60 DUP2 ADD DUP5 SWAP1 MSTORE PUSH1 0x1 PUSH1 0x1 PUSH1 0x40 SHL SUB TIMESTAMP AND PUSH1 0x80 DUP3 ADD MSTORE PUSH1 0x0 PUSH1 0xA0 DUP3 ADD DUP2 SWAP1 MSTORE PUSH1 0xC0 DUP3 ADD DUP2 SWAP1 MSTORE PUSH1 0xE0 DUP3 ADD MSTORE PUSH1 0x0 DUP8 DUP2 MSTORE PUSH1 0x20 DUP2 DUP2 MSTORE PUSH1 0x40 SWAP2 DUP3 SWAP1 KECCAK256 DUP4 MLOAD DUP2 SLOAD PUSH1 0x1 PUSH1 0x1 PUSH1 0xA0 SHL SUB SWAP2 DUP3 AND PUSH1 0x1 PUSH1 0x1 PUSH1 0xA0 SHL SUB NOT SWAP2 DUP3 AND OR DUP4 SSTORE SWAP3 DUP6 ADD MLOAD PUSH1 0x1 DUP1 DUP5 ADD DUP1 SLOAD SWAP3 SWAP1 SWAP4 AND SWAP2 SWAP1 SWAP5 AND OR SWAP1 SSTORE SWAP2 DUP4 ADD MLOAD PUSH1 0x2 DUP4 ADD SSTORE PUSH1 0x60 DUP4 ADD MLOAD PUSH1 0x3 DUP1 DUP5 ADD SWAP2 SWAP1 SWAP2 SSTORE PUSH1 0x80 DUP5 ADD MLOAD PUSH1 0x4 DUP5 ADD DUP1 SLOAD PUSH1 0xA0 DUP8 ADD MLOAD PUSH1 0x1 PUSH1 0x1 PUSH1 0x40 SHL SUB SWAP1 DUP2 AND PUSH1 0x1 PUSH1 0x40 SHL MUL PUSH16 0xFFFFFFFFFFFFFFFFFFFFFFFFFFFFFFFF NOT SWAP1 SWAP3 AND SWAP4 AND SWAP3 SWAP1 SWAP3 OR SWAP2 SWAP1 SWAP2 OR SWAP1 SSTORE PUSH1 0xC0 DUP5 ADD MLOAD PUSH1 0x5 DUP5 ADD SSTORE PUSH1 0xE0 DUP5 ADD MLOAD PUSH1 0x6 DUP5 ADD DUP1 SLOAD SWAP2 SWAP4 SWAP1 SWAP3 PUSH1 0xFF NOT SWAP1 SWAP3 AND SWAP2 DUP5 SWAP1 DUP2 GT ISZERO PUSH2 0x4B9 JUMPI PUSH2 0x4B9 PUSH2 0xFBF JUMP JUMPDEST MUL OR SWAP1 SSTORE POP POP PUSH1 0x40 DUP1 MLOAD PUSH1 0x1 PUSH1 0x1 PUSH1 0xA0 SHL SUB DUP9 AND DUP2 MSTORE PUSH1 0x20 DUP2 ADD DUP8 SWAP1 MSTORE SWAP1 DUP2 ADD DUP6 SWAP1 MSTORE CALLER SWAP2 POP DUP8 SWAP1 PUSH32 0x9A81642995EB82C61150ACE07CCAE644C97B69FA389B64BFF4FC2814F7B77BC0 SWAP1 PUSH1 0x60 ADD PUSH1 0x40 MLOAD DUP1 SWAP2 SUB SWAP1 LOG3 POP POP POP POP POP POP JUMP JUMPDEST PUSH2 0x55B PUSH1 0x40 DUP1 MLOAD PUSH2 0x100 DUP2 ADD DUP3 MSTORE PUSH1 0x0 DUP1 DUP3 MSTORE PUSH1 0x20 DUP3 ADD DUP2 SWAP1 MSTORE SWAP2 DUP2 ADD DUP3 SWAP1 MSTORE PUSH1 0x60 DUP2 ADD DUP3 SWAP1 MSTORE PUSH1 0x80 DUP2 ADD DUP3 SWAP1 MSTORE PUSH1 0xA0 DUP2 ADD DUP3 SWAP1 MSTORE PUSH1 0xC0 DUP2 ADD DUP3 SWAP1 MSTORE SWAP1 PUSH1 0xE0 DUP3 ADD MSTORE SWAP1 JUMP JUMPDEST PUSH1 0x0 DUP3 DUP2 MSTORE PUSH1 0x20 DUP2 DUP2 MSTORE PUSH1 0x40 SWAP2 DUP3 SWAP1 KECCAK256 DUP3 MLOAD PUSH2 0x100 DUP2 ADD DUP5 MSTORE DUP2 SLOAD PUSH1 0x1 PUSH1 0x1 PUSH1 0xA0 SHL SUB SWAP1 DUP2 AND DUP3 MSTORE PUSH1 0x1 DUP4 ADD SLOAD AND SWAP3 DUP2 ADD SWAP3 SWAP1 SWAP3 MSTORE PUSH1 0x2 DUP2 ADD SLOAD SWAP3 DUP3 ADD SWAP3 SWAP1 SWAP3 MSTORE PUSH1 0x3 DUP1 DUP4 ADD SLOAD PUSH1 0x60 DUP4 ADD MSTORE PUSH1 0x4 DUP4 ADD SLOAD PUSH1 0x1 PUSH1 0x1 PUSH1 0x40 SHL SUB DUP1 DUP3 AND PUSH1 0x80 DUP6 ADD MSTORE PUSH1 0x1 PUSH1 0x40 SHL SWAP1 SWAP2 DIV AND PUSH1 0xA0 DUP4 ADD MSTORE PUSH1 0x5 DUP4 ADD SLOAD PUSH1 0xC0 DUP4 ADD MSTORE PUSH1 0x6 DUP4 ADD SLOAD SWAP2 SWAP3 SWAP2 PUSH1 0xE0 DUP5 ADD SWAP2 PUSH1 0xFF SWAP1 SWAP2 AND SWAP1 DUP2 GT ISZERO PUSH2 0x5F6 JUMPI PUSH2 0x5F6 PUSH2 0xFBF JUMP JUMPDEST PUSH1 0x3 DUP2 GT ISZERO PUSH2 0x607 JUMPI PUSH2 0x607 PUSH2 0xFBF JUMP JUMPDEST SWAP1 MSTORE POP SWAP3 SWAP2 POP POP JUMP JUMPDEST PUSH1 0x0 DUP2 DUP2 MSTORE PUSH1 0x20 DUP2 SWAP1 MSTORE PUSH1 0x40 DUP2 KECCAK256 PUSH1 0x1 PUSH1 0x6 DUP3 ADD SLOAD PUSH1 0xFF AND PUSH1 0x3 DUP2 GT ISZERO PUSH2 0x639 JUMPI PUSH2 0x639 PUSH2 0xFBF JUMP JUMPDEST EQ DUP1 ISZERO PUSH2 0x670 JUMPI POP PUSH1 0x4 DUP2 ADD SLOAD PUSH2 0x664 SWAP1 PUSH3 0x1BAF80 SWAP1 PUSH1 0x1 PUSH1 0x40 SHL SWAP1 DIV PUSH1 0x1 PUSH1 0x1 PUSH1 0x40 SHL SUB AND PUSH2 0x1146 JUMP JUMPDEST PUSH1 0x1 PUSH1 0x1 PUSH1 0x40 SHL SUB AND TIMESTAMP GT JUMPDEST SWAP4 SWAP3 POP POP POP JUMP JUMPDEST PUSH1 0x0 DUP2 DUP2 MSTORE PUSH1 0x20 DUP2 SWAP1 MSTORE PUSH1 0x40 SWAP1 KECCAK256 DUP1 SLOAD PUSH1 0x1 PUSH1 0x1 PUSH1 0xA0 SHL SUB AND PUSH2 0x6AD JUMPI PUSH1 0x40 MLOAD PUSH4 0xD36D8965 PUSH1 0xE0 SHL DUP2 MSTORE PUSH1 0x4 ADD PUSH1 0x40 MLOAD DUP1 SWAP2 SUB SWAP1 REVERT JUMPDEST PUSH1 0x1 PUSH1 0x6 DUP3 ADD SLOAD PUSH1 0xFF AND PUSH1 0x3 DUP2 GT ISZERO PUSH2 0x6C8 JUMPI PUSH2 0x6C8 PUSH2 0xFBF JUMP JUMPDEST EQ PUSH2 0x6FB JUMPI PUSH1 0x6 DUP2 ADD SLOAD PUSH1 0x40 MLOAD PUSH4 0xE064752B PUSH1 0xE0 SHL DUP2 MSTORE PUSH2 0x6F2 SWAP2 PUSH1 0xFF AND SWAP1 PUSH1 0x1 SWAP1 PUSH1 0x4 ADD PUSH2 0x1166 JUMP JUMPDEST PUSH1 0x40 MLOAD DUP1 SWAP2 SUB SWAP1 REVERT JUMPDEST PUSH1 0x4 DUP2 ADD SLOAD PUSH2 0x71E SWAP1 PUSH3 0x1BAF80 SWAP1 PUSH1 0x1 PUSH1 0x40 SHL SWAP1 DIV PUSH1 0x1 PUSH1 0x1 PUSH1 0x40 SHL SUB AND PUSH2 0x1146 JUMP JUMPDEST PUSH1 0x1 PUSH1 0x1 PUSH1 0x40 SHL SUB AND TIMESTAMP GT PUSH2 0x746 JUMPI PUSH1 0x40 MLOAD PUSH4 0xA4229FAB PUSH1 0xE0 SHL DUP2 MSTORE PUSH1 0x4 ADD PUSH1 0x40 MLOAD DUP1 SWAP2 SUB SWAP1 REVERT JUMPDEST PUSH1 0x6 DUP2 ADD DUP1 SLOAD PUSH1 0xFF NOT AND PUSH1 0x2 OR SWAP1 SSTORE PUSH1 0x3 DUP2 ADD SLOAD DUP1 ISZERO PUSH2 0x81C JUMPI PUSH1 0x1 DUP3 ADD SLOAD PUSH1 0x40 MLOAD PUSH4 0xA9059CBB PUSH1 0xE0 SHL DUP2 MSTORE PUSH1 0x1 PUSH1 0x1 PUSH1 0xA0 SHL SUB PUSH32 0x0 DUP2 AND PUSH1 0x4 DUP4 ADD MSTORE PUSH1 0x24 DUP3 ADD DUP5 SWAP1 MSTORE PUSH1 0x0 SWAP3 AND SWAP1 PUSH4 0xA9059CBB SWAP1 PUSH1 0x44 ADD PUSH1 0x20 PUSH1 0x40 MLOAD DUP1 DUP4 SUB DUP2 PUSH1 0x0 DUP8 GAS CALL ISZERO DUP1 ISZERO PUSH2 0x7D6 JUMPI RETURNDATASIZE PUSH1 0x0 DUP1 RETURNDATACOPY RETURNDATASIZE PUSH1 0x0 REVERT JUMPDEST POP POP POP POP PUSH1 0x40 MLOAD RETURNDATASIZE PUSH1 0x1F NOT PUSH1 0x1F DUP3 ADD AND DUP3 ADD DUP1 PUSH1 0x40 MSTORE POP DUP2 ADD SWAP1 PUSH2 0x7FA SWAP2 SWAP1 PUSH2 0x1124 JUMP JUMPDEST SWAP1 POP DUP1 PUSH2 0x81A JUMPI PUSH1 0x40 MLOAD PUSH4 0x12171D83 PUSH1 0xE3 SHL DUP2 MSTORE PUSH1 0x4 ADD PUSH1 0x40 MLOAD DUP1 SWAP2 SUB SWAP1 REVERT JUMPDEST POP JUMPDEST PUSH32 0x0 PUSH1 0x1 PUSH1 0x1 PUSH1 0xA0 SHL SUB AND DUP4 PUSH32 0xC87EA94744E515A141B53EBA177AE006A4D9719E01CBA87B603E92EDD919D402 DUP4 PUSH1 0x40 MLOAD PUSH2 0x878 SWAP2 DUP2 MSTORE PUSH1 0x20 ADD SWAP1 JUMP JUMPDEST PUSH1 0x40 MLOAD DUP1 SWAP2 SUB SWAP1 LOG3 POP POP POP JUMP JUMPDEST PUSH1 0x0 DUP2 DUP2 MSTORE PUSH1 0x20 DUP2 SWAP1 MSTORE PUSH1 0x40 SWAP1 KECCAK256 DUP1 SLOAD PUSH1 0x1 PUSH1 0x1 PUSH1 0xA0 SHL SUB AND PUSH2 0x8BB JUMPI PUSH1 0x40 MLOAD PUSH4 0xD36D8965 PUSH1 0xE0 SHL DUP2 MSTORE PUSH1 0x4 ADD PUSH1 0x40 MLOAD DUP1 SWAP2 SUB SWAP1 REVERT JUMPDEST DUP1 SLOAD PUSH1 0x1 PUSH1 0x1 PUSH1 0xA0 SHL SUB AND CALLER EQ PUSH2 0x8E5 JUMPI PUSH1 0x40 MLOAD PUSH4 0x239700BF PUSH1 0xE1 SHL DUP2 MSTORE PUSH1 0x4 ADD PUSH1 0x40 MLOAD DUP1 SWAP2 SUB SWAP1 REVERT JUMPDEST PUSH1 0x1 PUSH1 0x6 DUP3 ADD SLOAD PUSH1 0xFF AND PUSH1 0x3 DUP2 GT ISZERO PUSH2 0x900 JUMPI PUSH2 0x900 PUSH2 0xFBF JUMP JUMPDEST EQ PUSH2 0x92A JUMPI PUSH1 0x6 DUP2 ADD SLOAD PUSH1 0x40 MLOAD PUSH4 0xE064752B PUSH1 0xE0 SHL DUP2 MSTORE PUSH2 0x6F2 SWAP2 PUSH1 0xFF AND SWAP1 PUSH1 0x1 SWAP1 PUSH1 0x4 ADD PUSH2 0x1166 JUMP JUMPDEST PUSH1 0x4 DUP2 ADD SLOAD PUSH2 0x94D SWAP1 PUSH3 0x1BAF80 SWAP1 PUSH1 0x1 PUSH1 0x40 SHL SWAP1 DIV PUSH1 0x1 PUSH1 0x1 PUSH1 0x40 SHL SUB AND PUSH2 0x1146 JUMP JUMPDEST PUSH1 0x1 PUSH1 0x1 PUSH1 0x40 SHL SUB AND TIMESTAMP GT ISZERO PUSH2 0x976 JUMPI PUSH1 0x40 MLOAD PUSH4 0x2F23CFCD PUSH1 0xE0 SHL DUP2 MSTORE PUSH1 0x4 ADD PUSH1 0x40 MLOAD DUP1 SWAP2 SUB SWAP1 REVERT JUMPDEST PUSH1 0x6 DUP2 ADD DUP1 SLOAD PUSH1 0xFF NOT AND PUSH1 0x3 SWAP1 DUP2 OR SWAP1 SWAP2 SSTORE DUP2 ADD SLOAD DUP1 ISZERO PUSH2 0xA32 JUMPI PUSH1 0x1 DUP3 ADD SLOAD DUP3 SLOAD PUSH1 0x40 MLOAD PUSH4 0xA9059CBB PUSH1 0xE0 SHL DUP2 MSTORE PUSH1 0x1 PUSH1 0x1 PUSH1 0xA0 SHL SUB SWAP2 DUP3 AND PUSH1 0x4 DUP3 ADD MSTORE PUSH1 0x24 DUP2 ADD DUP5 SWAP1 MSTORE PUSH1 0x0 SWAP3 SWAP2 SWAP1 SWAP2 AND SWAP1 PUSH4 0xA9059CBB SWAP1 PUSH1 0x44 ADD PUSH1 0x20 PUSH1 0x40 MLOAD DUP1 DUP4 SUB DUP2 PUSH1 0x0 DUP8 GAS CALL ISZERO DUP1 ISZERO PUSH2 0x9EC JUMPI RETURNDATASIZE PUSH1 0x0 DUP1 RETURNDATACOPY RETURNDATASIZE PUSH1 0x0 REVERT JUMPDEST POP POP POP POP PUSH1 0x40 MLOAD RETURNDATASIZE PUSH1 0x1F NOT PUSH1 0x1F DUP3 ADD AND DUP3 ADD DUP1 PUSH1 0x40 MSTORE POP DUP2 ADD SWAP1 PUSH2 0xA10 SWAP2 SWAP1 PUSH2 0x1124 JUMP JUMPDEST SWAP1 POP DUP1 PUSH2 0xA30 JUMPI PUSH1 0x40 MLOAD PUSH4 0x12171D83 PUSH1 0xE3 SHL DUP2 MSTORE PUSH1 0x4 ADD PUSH1 0x40 MLOAD DUP1 SWAP2 SUB SWAP1 REVERT JUMPDEST POP JUMPDEST DUP2 SLOAD PUSH1 0x40 MLOAD DUP3 DUP2 MSTORE PUSH1 0x1 PUSH1 0x1 PUSH1 0xA0 SHL SUB SWAP1 SWAP2 AND SWAP1 DUP5 SWAP1 PUSH32 0x3A84B32841D2D6269A291738C391C36EFCAA89D2869BD068CE64014DBA3BD9F6 SWAP1 PUSH1 0x20 ADD PUSH2 0x878 JUMP JUMPDEST PUSH1 0x0 DUP2 DUP2 MSTORE PUSH1 0x20 DUP2 SWAP1 MSTORE PUSH1 0x40 DUP2 KECCAK256 PUSH1 0x4 DUP2 ADD SLOAD PUSH1 0x1 PUSH1 0x40 SHL SWAP1 DIV PUSH1 0x1 PUSH1 0x1 PUSH1 0x40 SHL SUB AND DUP3 SUB PUSH2 0xAA4 JUMPI POP PUSH1 0x0 SWAP3 SWAP2 POP POP JUMP JUMPDEST PUSH1 0x4 DUP2 ADD SLOAD PUSH2 0x670 SWAP1 PUSH3 0x1BAF80 SWAP1 PUSH1 0x1 PUSH1 0x40 SHL SWAP1 DIV PUSH1 0x1 PUSH1 0x1 PUSH1 0x40 SHL SUB AND PUSH2 0x1146 JUMP JUMPDEST CALLER PUSH1 0x1 PUSH1 0x1 PUSH1 0xA0 SHL SUB PUSH32 0x0 AND EQ PUSH2 0xB10 JUMPI PUSH1 0x40 MLOAD PUSH4 0x16AAC54F PUSH1 0xE0 SHL DUP2 MSTORE PUSH1 0x4 ADD PUSH1 0x40 MLOAD DUP1 SWAP2 SUB SWAP1 REVERT JUMPDEST PUSH1 0x0 DUP3 DUP2 MSTORE PUSH1 0x20 DUP2 SWAP1 MSTORE PUSH1 0x40 SWAP1 KECCAK256 DUP1 SLOAD PUSH1 0x1 PUSH1 0x1 PUSH1 0xA0 SHL SUB AND PUSH2 0xB46 JUMPI PUSH1 0x40 MLOAD PUSH4 0xD36D8965 PUSH1 0xE0 SHL DUP2 MSTORE PUSH1 0x4 ADD PUSH1 0x40 MLOAD DUP1 SWAP2 SUB SWAP1 REVERT JUMPDEST PUSH1 0x0 PUSH1 0x6 DUP3 ADD SLOAD PUSH1 0xFF AND PUSH1 0x3 DUP2 GT ISZERO PUSH2 0xB61 JUMPI PUSH2 0xB61 PUSH2 0xFBF JUMP JUMPDEST EQ PUSH2 0xB8B JUMPI PUSH1 0x6 DUP2 ADD SLOAD PUSH1 0x40 MLOAD PUSH4 0xE064752B PUSH1 0xE0 SHL DUP2 MSTORE PUSH2 0x6F2 SWAP2 PUSH1 0xFF AND SWAP1 PUSH1 0x0 SWAP1 PUSH1 0x4 ADD PUSH2 0x1166 JUMP JUMPDEST PUSH1 0x6 DUP2 ADD DUP1 SLOAD PUSH1 0xFF NOT AND PUSH1 0x1 OR SWAP1 SSTORE PUSH1 0x4 DUP2 ADD DUP1 SLOAD PUSH1 0x1 PUSH1 0x1 PUSH1 0x40 SHL SUB TIMESTAMP AND PUSH1 0x1 PUSH1 0x40 SHL MUL PUSH16 0xFFFFFFFFFFFFFFFF0000000000000000 NOT SWAP1 SWAP2 AND OR SWAP1 SSTORE PUSH1 0x5 DUP2 ADD DUP3 SWAP1 SSTORE PUSH1 0x2 DUP2 ADD SLOAD ISZERO PUSH2 0xCAA JUMPI PUSH1 0x1 DUP2 ADD SLOAD PUSH1 0x2 DUP3 ADD SLOAD PUSH1 0x40 MLOAD PUSH4 0xA9059CBB PUSH1 0xE0 SHL DUP2 MSTORE PUSH1 0x0 SWAP3 PUSH1 0x1 PUSH1 0x1 PUSH1 0xA0 SHL SUB AND SWAP2 PUSH4 0xA9059CBB SWAP2 PUSH2 0xC45 SWAP2 PUSH32 0x0 SWAP2 PUSH1 0x4 ADD PUSH1 0x1 PUSH1 0x1 PUSH1 0xA0 SHL SUB SWAP3 SWAP1 SWAP3 AND DUP3 MSTORE PUSH1 0x20 DUP3 ADD MSTORE PUSH1 0x40 ADD SWAP1 JUMP JUMPDEST PUSH1 0x20 PUSH1 0x40 MLOAD DUP1 DUP4 SUB DUP2 PUSH1 0x0 DUP8 GAS CALL ISZERO DUP1 ISZERO PUSH2 0xC64 JUMPI RETURNDATASIZE PUSH1 0x0 DUP1 RETURNDATACOPY RETURNDATASIZE PUSH1 0x0 REVERT JUMPDEST POP POP POP POP PUSH1 0x40 MLOAD RETURNDATASIZE PUSH1 0x1F NOT PUSH1 0x1F DUP3 ADD AND DUP3 ADD DUP1 PUSH1 0x40 MSTORE POP DUP2 ADD SWAP1 PUSH2 0xC88 SWAP2 SWAP1 PUSH2 0x1124 JUMP JUMPDEST SWAP1 POP DUP1 PUSH2 0xCA8 JUMPI PUSH1 0x40 MLOAD PUSH4 0x12171D83 PUSH1 0xE3 SHL DUP2 MSTORE PUSH1 0x4 ADD PUSH1 0x40 MLOAD DUP1 SWAP2 SUB SWAP1 REVERT JUMPDEST POP JUMPDEST PUSH1 0x4 DUP2 ADD SLOAD PUSH1 0x40 DUP1 MLOAD DUP5 DUP2 MSTORE PUSH1 0x1 PUSH1 0x40 SHL SWAP1 SWAP3 DIV PUSH1 0x1 PUSH1 0x1 PUSH1 0x40 SHL SUB AND PUSH1 0x20 DUP4 ADD MSTORE DUP5 SWAP2 PUSH32 0xC90A7B74D4FA959730F53CF54046825D6CEF5FFBCCC0FC881C8B775C99EC1FDF SWAP2 ADD PUSH1 0x40 MLOAD DUP1 SWAP2 SUB SWAP1 LOG2 POP POP POP JUMP JUMPDEST PUSH1 0x0 DUP2 DUP2 MSTORE PUSH1 0x20 DUP2 SWAP1 MSTORE PUSH1 0x40 SWAP1 KECCAK256 DUP1 SLOAD PUSH1 0x1 PUSH1 0x1 PUSH1 0xA0 SHL SUB AND PUSH2 0xD34 JUMPI PUSH1 0x40 MLOAD PUSH4 0xD36D8965 PUSH1 0xE0 SHL DUP2 MSTORE PUSH1 0x4 ADD PUSH1 0x40 MLOAD DUP1 SWAP2 SUB SWAP1 REVERT JUMPDEST DUP1 SLOAD PUSH1 0x1 PUSH1 0x1 PUSH1 0xA0 SHL SUB AND CALLER EQ PUSH2 0xD5E JUMPI PUSH1 0x40 MLOAD PUSH4 0x239700BF PUSH1 0xE1 SHL DUP2 MSTORE PUSH1 0x4 ADD PUSH1 0x40 MLOAD DUP1 SWAP2 SUB SWAP1 REVERT JUMPDEST PUSH1 0x0 PUSH1 0x6 DUP3 ADD SLOAD PUSH1 0xFF AND PUSH1 0x3 DUP2 GT ISZERO PUSH2 0xD79 JUMPI PUSH2 0xD79 PUSH2 0xFBF JUMP JUMPDEST EQ PUSH2 0xDA3 JUMPI PUSH1 0x6 DUP2 ADD SLOAD PUSH1 0x40 MLOAD PUSH4 0xE064752B PUSH1 0xE0 SHL DUP2 MSTORE PUSH2 0x6F2 SWAP2 PUSH1 0xFF AND SWAP1 PUSH1 0x0 SWAP1 PUSH1 0x4 ADD PUSH2 0x1166 JUMP JUMPDEST PUSH1 0x4 DUP2 ADD SLOAD PUSH2 0xDBF SWAP1 PUSH3 0x278D00 SWAP1 PUSH1 0x1 PUSH1 0x1 PUSH1 0x40 SHL SUB AND PUSH2 0x1146 JUMP JUMPDEST PUSH1 0x1 PUSH1 0x1 PUSH1 0x40 SHL SUB AND TIMESTAMP GT PUSH2 0xDE7 JUMPI PUSH1 0x40 MLOAD PUSH4 0x33762773 PUSH1 0xE1 SHL DUP2 MSTORE PUSH1 0x4 ADD PUSH1 0x40 MLOAD DUP1 SWAP2 SUB SWAP1 REVERT JUMPDEST PUSH1 0x6 DUP2 ADD DUP1 SLOAD PUSH1 0xFF NOT AND PUSH1 0x3 SWAP1 DUP2 OR SWAP1 SWAP2 SSTORE DUP2 ADD SLOAD PUSH1 0x2 DUP3 ADD SLOAD PUSH1 0x0 SWAP2 PUSH2 0xE0D SWAP2 PUSH2 0x110B JUMP JUMPDEST SWAP1 POP DUP1 ISZERO PUSH2 0xEB6 JUMPI PUSH1 0x1 DUP3 ADD SLOAD DUP3 SLOAD PUSH1 0x40 MLOAD PUSH4 0xA9059CBB PUSH1 0xE0 SHL DUP2 MSTORE PUSH1 0x1 PUSH1 0x1 PUSH1 0xA0 SHL SUB SWAP2 DUP3 AND PUSH1 0x4 DUP3 ADD MSTORE PUSH1 0x24 DUP2 ADD DUP5 SWAP1 MSTORE PUSH1 0x0 SWAP3 SWAP2 SWAP1 SWAP2 AND SWAP1 PUSH4 0xA9059CBB SWAP1 PUSH1 0x44 ADD PUSH1 0x20 PUSH1 0x40 MLOAD DUP1 DUP4 SUB DUP2 PUSH1 0x0 DUP8 GAS CALL ISZERO DUP1 ISZERO PUSH2 0xE70 JUMPI RETURNDATASIZE PUSH1 0x0 DUP1 RETURNDATACOPY RETURNDATASIZE PUSH1 0x0 REVERT JUMPDEST POP POP POP POP PUSH1 0x40 MLOAD RETURNDATASIZE PUSH1 0x1F NOT PUSH1 0x1F DUP3 ADD AND DUP3 ADD DUP1 PUSH1 0x40 MSTORE POP DUP2 ADD SWAP1 PUSH2 0xE94 SWAP2 SWAP1 PUSH2 0x1124 JUMP JUMPDEST SWAP1 POP DUP1 PUSH2 0xEB4 JUMPI PUSH1 0x40 MLOAD PUSH4 0x12171D83 PUSH1 0xE3 SHL DUP2 MSTORE PUSH1 0x4 ADD PUSH1 0x40 MLOAD DUP1 SWAP2 SUB SWAP1 REVERT JUMPDEST POP JUMPDEST DUP2 SLOAD PUSH1 0x40 MLOAD DUP3 DUP2 MSTORE PUSH1 0x1 PUSH1 0x1 PUSH1 0xA0 SHL SUB SWAP1 SWAP2 AND SWAP1 DUP5 SWAP1 PUSH32 0x93F8973F493B0E50D6D487C0901E01B044DDD821B5E779A2B2FC2CCA93E2D456 SWAP1 PUSH1 0x20 ADD PUSH2 0x878 JUMP JUMPDEST PUSH1 0x0 DUP2 DUP2 MSTORE PUSH1 0x20 DUP2 SWAP1 MSTORE PUSH1 0x40 DUP2 KECCAK256 PUSH1 0x1 PUSH1 0x6 DUP3 ADD SLOAD PUSH1 0xFF AND PUSH1 0x3 DUP2 GT ISZERO PUSH2 0xF1F JUMPI PUSH2 0xF1F PUSH2 0xFBF JUMP JUMPDEST EQ DUP1 ISZERO PUSH2 0x670 JUMPI POP PUSH1 0x4 DUP2 ADD SLOAD PUSH2 0xF4A SWAP1 PUSH3 0x1BAF80 SWAP1 PUSH1 0x1 PUSH1 0x40 SHL SWAP1 DIV PUSH1 0x1 PUSH1 0x1 PUSH1 0x40 SHL SUB AND PUSH2 0x1146 JUMP JUMPDEST PUSH1 0x1 PUSH1 0x1 PUSH1 0x40 SHL SUB AND TIMESTAMP GT ISZERO SWAP4 SWAP3 POP POP POP JUMP JUMPDEST PUSH1 0x0 DUP1 PUSH1 0x0 DUP1 PUSH1 0x80 DUP6 DUP8 SUB SLT ISZERO PUSH2 0xF73 JUMPI PUSH1 0x0 DUP1 REVERT JUMPDEST DUP5 CALLDATALOAD SWAP4 POP PUSH1 0x20 DUP6 ADD CALLDATALOAD PUSH1 0x1 PUSH1 0x1 PUSH1 0xA0 SHL SUB DUP2 AND DUP2 EQ PUSH2 0xF91 JUMPI PUSH1 0x0 DUP1 REVERT JUMPDEST SWAP4 SWAP7 SWAP4 SWAP6 POP POP POP POP PUSH1 0x40 DUP3 ADD CALLDATALOAD SWAP2 PUSH1 0x60 ADD CALLDATALOAD SWAP1 JUMP JUMPDEST PUSH1 0x0 PUSH1 0x20 DUP3 DUP5 SUB SLT ISZERO PUSH2 0xFB8 JUMPI PUSH1 0x0 DUP1 REVERT JUMPDEST POP CALLDATALOAD SWAP2 SWAP1 POP JUMP JUMPDEST PUSH4 0x4E487B71 PUSH1 0xE0 SHL PUSH1 0x0 MSTORE PUSH1 0x21 PUSH1 0x4 MSTORE PUSH1 0x24 PUSH1 0x0 REVERT JUMPDEST PUSH1 0x4 DUP2 LT PUSH2 0xFF3 JUMPI PUSH4 0x4E487B71 PUSH1 0xE0 SHL PUSH1 0x0 MSTORE PUSH1 0x21 PUSH1 0x4 MSTORE PUSH1 0x24 PUSH1 0x0 REVERT JUMPDEST SWAP1 MSTORE JUMP JUMPDEST PUSH1 0x0 PUSH2 0x100 DUP3 ADD SWAP1 POP PUSH1 0x1 DUP1 PUSH1 0xA0 SHL SUB DUP1 DUP5 MLOAD AND DUP4 MSTORE DUP1 PUSH1 0x20 DUP6 ADD MLOAD AND PUSH1 0x20 DUP5 ADD MSTORE POP PUSH1 0x40 DUP4 ADD MLOAD PUSH1 0x40 DUP4 ADD MSTORE PUSH1 0x60 DUP4 ADD MLOAD PUSH1 0x60 DUP4 ADD MSTORE PUSH1 0x80 DUP4 ADD MLOAD PUSH1 0x1 PUSH1 0x1 PUSH1 0x40 SHL SUB DUP1 DUP3 AND PUSH1 0x80 DUP6 ADD MSTORE DUP1 PUSH1 0xA0 DUP7 ADD MLOAD AND PUSH1 0xA0 DUP6 ADD MSTORE POP POP PUSH1 0xC0 DUP4 ADD MLOAD PUSH1 0xC0 DUP4 ADD MSTORE PUSH1 0xE0 DUP4 ADD MLOAD PUSH2 0x106D PUSH1 0xE0 DUP5 ADD DUP3 PUSH2 0xFD5 JUMP JUMPDEST POP SWAP3 SWAP2 POP POP JUMP JUMPDEST PUSH1 0x1 PUSH1 0x1 PUSH1 0xA0 SHL SUB DUP10 DUP2 AND DUP3 MSTORE DUP9 AND PUSH1 0x20 DUP3 ADD MSTORE PUSH1 0x40 DUP2 ADD DUP8 SWAP1 MSTORE PUSH1 0x60 DUP2 ADD DUP7 SWAP1 MSTORE PUSH1 0x1 PUSH1 0x1 PUSH1 0x40 SHL SUB DUP6 DUP2 AND PUSH1 0x80 DUP4 ADD MSTORE DUP5 AND PUSH1 0xA0 DUP3 ADD MSTORE PUSH1 0xC0 DUP2 ADD DUP4 SWAP1 MSTORE PUSH2 0x100 DUP2 ADD PUSH2 0x10C6 PUSH1 0xE0 DUP4 ADD DUP5 PUSH2 0xFD5 JUMP JUMPDEST SWAP10 SWAP9 POP POP POP POP POP POP POP POP POP JUMP JUMPDEST PUSH1 0x0 DUP1 PUSH1 0x40 DUP4 DUP6 SUB SLT ISZERO PUSH2 0x10E6 JUMPI PUSH1 0x0 DUP1 REVERT JUMPDEST POP POP DUP1 CALLDATALOAD SWAP3 PUSH1 0x20 SWAP1 SWAP2 ADD CALLDATALOAD SWAP2 POP JUMP JUMPDEST PUSH4 0x4E487B71 PUSH1 0xE0 SHL PUSH1 0x0 MSTORE PUSH1 0x11 PUSH1 0x4 MSTORE PUSH1 0x24 PUSH1 0x0 REVERT JUMPDEST DUP1 DUP3 ADD DUP1 DUP3 GT ISZERO PUSH2 0x111E JUMPI PUSH2 0x111E PUSH2 0x10F5 JUMP JUMPDEST SWAP3 SWAP2 POP POP JUMP JUMPDEST PUSH1 0x0 PUSH1 0x20 DUP3 DUP5 SUB SLT ISZERO PUSH2 0x1136 JUMPI PUSH1 0x0 DUP1 REVERT JUMPDEST DUP2 MLOAD DUP1 ISZERO ISZERO DUP2 EQ PUSH2 0x670 JUMPI PUSH1 0x0 DUP1 REVERT JUMPDEST PUSH1 0x1 PUSH1 0x1 PUSH1 0x40 SHL SUB DUP2 DUP2 AND DUP4 DUP3 AND ADD SWAP1 DUP1 DUP3 GT ISZERO PUSH2 0x106D JUMPI PUSH2 0x106D PUSH2 0x10F5 JUMP JUMPDEST PUSH1 0x40 DUP2 ADD PUSH2 0x1174 DUP3 DUP6 PUSH2 0xFD5 JUMP JUMPDEST PUSH2 0x670 PUSH1 0x20 DUP4 ADD DUP5 PUSH2 0xFD5 JUMP INVALID LOG2 PUSH5 0x6970667358 0x22 SLT KECCAK256 SWAP16 SWAP13 JUMPI JUMPI 0xB4 DELEGATECALL BLOCKHASH RETURN MUL DUP6 0x4C EXTCODEHASH CALLCODE SHR SWAP2 0xFB 0x49 PUSH3 0x66A11D 0x2B 0xF6 0xB1 DUP12 CALLDATASIZE 0x5D 0x2A CALLER JUMPDEST 0xE5 0xA7 PUSH5 0x736F6C6343 STOP ADDMOD EQ STOP CALLER "},"methodIdentifiers":{"DISPUTE_WINDOW()":"f585dc57","FULFILLMENT_DEADLINE()":"73aa7066","author()":"a6c3e6b9","canClaimRefund(bytes32)":"feacd71f","canReleaseProfit(bytes32)":"79e6e039","claimProfitRefund(bytes32)":"b9b35088","createOrder(bytes32,address,uint256,uint256)":"134e9c67","disputeWindowEnd(bytes32)":"ce20372f","emergencyRefund(bytes32)":"d92e0af2","fulfillOrder(bytes32,bytes32)":"d25f180b","getOrder(bytes32)":"5778472a","orders(bytes32)":"9c3f1e90","releaseProfit(bytes32)":"7ac96a56"}}}}}